:020000040800F2
:100000005016002029020008B92300082515000811
:10001000B52300088D0600084150000800000000CC
:10002000000000000000000000000000852500081E
:10003000450A000800000000492400088D2D000832
:10004000430200084302000843020008430200087C
:10005000430200084302000843020008F10A0008B6
:10006000990B00083D0C0008AD0C00084302000885
:10007000430200084302000843020008430200084C
:10008000430200084302000843020008430200083C
:10009000430200084302000843020008550D00080F
:1000A000430200084302000843020008430200081C
:1000B00043020008E94B000843020008430200081D
:1000C00043020008430200084302000843020008FC
:1000D00043020008430200084302000843020008EC
:1000E000490A0008430200084302000843020008CE
:1000F00043020008430200084302000843020008CC
:1001000043020008430200084302000843020008BB
:1001100043020008430200084302000843020008AB
:10012000430200084302000843020008430200089B
:10013000430200084302000843020008430200088B
:10014000430200084302000843020008430200087B
:10015000430200084302000843020008430200086B
:10016000430200084302000843020008430200085B
:10017000430200084302000843020008430200084B
:10018000430200084302000800F002F800F03CF8C7
:100190000AA090E8000C82448344AAF10107DA45E2
:1001A00001D100F031F8AFF2090EBAE80F0013F0F8
:1001B000010F18BFFB1A43F001031847187F000016
:1001C000387F0000103A24BF78C878C1FAD85207A7
:1001D00024BF30C830C144BF04680C6070470000C1
:1001E0000023002400250026103A28BF78C1FBD840
:1001F000520728BF30C148BF0B6070471FB505F0DC
:100200006BFA1FBD10B510BD00F031F81146FFF7B5
:10021000F5FF05F0B9F900F04FF803B4FFF7F2FF6E
:1002200003BC00F057F80000094880470948004720
:10023000FEE7FEE7FEE7FEE7FEE7FEE7FEE7FEE796
:10024000FEE7FEE704480549054A064B70470000F3
:10025000912D000889010008501000205016002040
:1002600050120020501200207047704770477546AA
:1002700000F02CF8AE4605006946534620F0070012
:10028000854618B020B5FFF7DDFFBDE820404FF0F0
:1002900000064FF000074FF000084FF0000B21F070
:1002A0000701AC46ACE8C009ACE8C009ACE8C0093D
:1002B000ACE8C0098D46704710B50446AFF3008026
:1002C0002046BDE81040FFF7A8BF00000048704777
:1002D000EC0F002001491820ABBEFEE7260002000B
:1002E0007047000010B50B4800780B490978884228
:1002F0000ED00A2005F0E0F807480078054908709C
:100300000548007802F060F90348007803F096FF92
:1003100010BD000011000020000000201CB50121CC
:10032000202002F0C1F83020009001208DF8040058
:1003300000208DF8060003208DF8050001208DF8BF
:1003400007006946044800F042FE012003490860A6
:100350000349C1F894021CBD00140240908242423D
:10036000008042420021124A11601249096821F4BA
:100370004061104A11601146096841F480611160C2
:1003800000210D4AC2F89412002001E0411CC8B2BD
:100390001428FBDB0121064A1160002001E0411C0A
:1003A000C8B21428FBDB0021014A1160704700002D
:1003B0009082424200140240008042420021104AD2
:1003C00011601049096821F440610E4A116011461C
:1003D000096841F480611160002001E0411CC8B24D
:1003E0001428FBDB0121064A1160002001E0411CBA
:1003F000C8B21428FBDB0021014A116070470000DD
:1004000090824242001402401249096821F440617E
:10041000104A11601146096841F4806111600121A0
:100420000D4A11600D4AC2F89012002001E0411CF3
:10043000C8B23228FBDB0021074A1160002001E02E
:10044000411CC8B23228FBDB0021034A121F116095
:1004500070470000001402409482424200804242F1
:100460001249096821F44061104A11601146096877
:1004700041F48061116000210D4A11600D4AC2F8FB
:100480009012002001E0411CC8B23228FBDB0121A0
:10049000074A121F1160074AC2F89412002001E0B7
:1004A000411CC8B23228FBDB704700000014024038
:1004B000948242420080424210B500240023174833
:1004C000006820F44060154908600846006808602C
:1004D00001201349086000BF01E0581CC3B2142B6F
:1004E000FBDB01200E49091F0860002301E0581CB6
:1004F000C3B2142BFBDB07E0601CC4B2FA2C03DD93
:10050000FFF7AEFF012010BD0548803800680028C5
:10051000F2D10349091F086000BFF4E7001402404C
:100520009482424210B5FFF7F9FE10BD30B5044683
:10053000FFF76AFFA02000F04FF8FFF7BDFF20464D
:1005400000F04AF8FFF7B8FFFFF75EFFA12000F0C8
:1005500043F8FFF7B1FF002000F006F80546FFF76B
:100560007FFF284630BD000070B50546174800687B
:1005700020F44060154908600846006808600026BD
:100580001AE0002012490860002301E0581CC3B2A1
:10059000142BFBDB01200E4908606006040E0D4899
:1005A000D0F814022044C4B2002301E0581CC3B2A6
:1005B000142BFBDB701CC6B2082EE2DB15B1FFF773
:1005C000D1FE01E0FFF7FAFE204670BD00140240A4
:1005D000908242420080424210B50146194B1B688E
:1005E00023F44063174C236023461B6843F4806365
:1005F00023600023144C236000221FE0CB09124C1F
:10060000241D23604B06190E002001E0431CD8B2C4
:100610001428FBDB01230C4C2360002001E0431C69
:10062000D8B21428FBDB0023074C2360002001E034
:10063000431CD8B21428FBDB531CDAB2082ADDDBDA
:1006400010BD0000001402409082424270B5064680
:100650000C46FFF7D9FEA020FFF7BEFFFFF72CFFE7
:100660003046FFF7B9FFFFF727FF2046FFF7B4FF3B
:10067000FFF722FFFFF7F4FE002500E06D1C0248A3
:100680008542FBD370BD000040420F0000BFFEE773
:1006900039B1084A1268012383401A43054B1A6096
:1006A00006E0044A1268012383409A43014B1A6012
:1006B000704700000074004041B1094A12684FF4CD
:1006C000805383401A43064B1A6007E0044A1268BD
:1006D0004FF4805383409A43014B1A6070470000E7
:1006E0000074004000B593B00121480501F0DCFE24
:1006F0000121480701F0F8FE24200F9000201090FF
:10070000022012900FA9002000F09EF81A4800F075
:10071000C1F84FF0606000901848019018480290AE
:100720004FF47A7004904FF40060079008904020D6
:100730000390002005904FF480600690801009908F
:1007400040020A9000200B9001200C9000200D9098
:100750000E906946084800F049F90121064800F06A
:100760008DF801210020FFF793FF01210020FFF702
:10077000A3FF13B000BD0000886002400874004071
:100780003C00002000B593B00121480501F08CFE2B
:100790000121480701F0A8FE14200F9000201090BE
:1007A000022012900FA9102000F04EF8224800F00D
:1007B00071F84FF06060009020480190204802904E
:1007C0004FF47A7004904FF4006007900890402036
:1007D0000390002005904FF48060069080100990EF
:1007E00040020A9000200B9001200C9000200D90F8
:1007F0000E906946104800F0F9F812480078012878
:100800000CD101210C4800F039F801211020FFF72C
:100810003FFF01211020FFF74FFF0BE000210648AA
:1008200000F02CF800211020FFF732FF00211020EB
:10083000FFF742FF13B000BDA060024014740040F7
:100840000C0800202200002030B5002200230A4CB2
:10085000226840F6FE748440A243D1E900452C434F
:100860008D682C43CD6844EA050303FA00F4224363
:10087000014C226030BD00000074004021B10268CC
:1008800042F00102026003E0026822F0010202600D
:1008900070470000016821F0010101600021016042
:1008A00041608160C1600161212141614A49884202
:1008B00004D13D21484A103A91608CE046491831F4
:1008C000884205D14FF47461434A103A916082E046
:1008D00041493031884205D14FF474113E4A103AF3
:1008E000916078E03C494831884205D14FF074610D
:1008F000394A103A91606EE037496031884204D13C
:100900003649354A103AD16065E03349783188423A
:1009100004D13349304A103AD1605CE02E4990311D
:10092000884204D12F492C4A103AD16053E02A4919
:10093000A831884205D14FF03D51274A103AD16085
:1009400049E02949884204D13D21274A083A1160EB
:1009500041E025491831884205D14FF47461224A9B
:10096000083A116037E020493031884205D14FF410
:1009700074111D4A083A11602DE01B494831884224
:1009800005D14FF07461184A083A116023E0164906
:100990006031884204D11149134A121F11601AE0D4
:1009A00011497831884204D10D490F4A121F116054
:1009B00011E00D499031884204D10A490A4A121FB8
:1009C000116008E00849A831884204D14FF03D5138
:1009D000054A121F11607047106002403D00002060
:1009E000400F002000003D201064024010B500229E
:1009F0000268134B1A40CC680B6823434C692343AD
:100A00008C692343CC6923430C6A23434C6A2343F8
:100A10008C6A23434C6B23438C6B23431A43026041
:100A2000426922F00702D1E90B3423431A434261A1
:100A30000B6943604B6883608B68C36010BD000026
:100A40003F801CF07047000070B500252548006805
:100A5000012842D1C00200F0D7F900283DD021483A
:100A6000001D006801280FD11F480088B0F5FA7FEB
:100A700004DB4FF4FA701C49088012E01A48008821
:100A8000401C194908800CE0174800880A2803DC3C
:100A90000A201549088004E013480088401E1249C6
:100AA000088011480488E01704EB1060C0F30721A8
:100AB0000520FFF7CBFD0C480488E01704EB10601D
:100AC0000012A4EB0020C1B20620FFF7BFFD0648CC
:100AD00001880648008801F0FBF94FF4006000F03F
:100AE0008DF970BD2C024042040000200600002059
:100AF00070B5002524480068012841D1022000F08B
:100B000083F900283CD02148006801280FD12048F3
:100B10000088B0F5FA7F04DB4FF4FA701C490880B6
:100B200012E01B4800880A30194908800CE0184878
:100B30000088002803DC00201549088004E01448E0
:100B400000880A381249088011480488E01704EB2D
:100B50001060C0F307210320FFF778FD0C480488DC
:100B6000E01704EB10600012A4EB0020C1B20420D7
:100B7000FFF76CFD074801880548008801F0A8F9D7
:100B8000022000F03BF970BD048242421002424252
:100B9000060000200400002070B5002524480068ED
:100BA000012841D1042000F02FF900283CD0214831
:100BB000006801280DD120480088C82803DBC82020
:100BC0001D49088012E01C4800880A301A49088034
:100BD0000CE019480088282803DC282016490880E2
:100BE00004E0154800880A38134908801248048830
:100BF000E01704EB1060C0F307210120FFF726FD8A
:100C00000D480488E01704EB10600012A4EB0020EC
:100C1000C1B20220FFF71AFD0748008801F06CF806
:100C20000548008803F0F6FB042000F0E7F870BDEB
:100C3000088242420C0242420200002010B5002409
:100C400017480068012827D11648006801280DD1EF
:100C500015480078FF2803DBFF201349087012E0D5
:100C600011480078401C104908700CE00E480078CC
:100C7000002803DC00200C49087004E00A480078D2
:100C8000401E09490870084801780020FFF7DEFC83
:100C90000548007800F024FF082000F0AFF810BDF0
:100CA0000C824242080242420000002070B500253A
:100CB00025480068012842D1102000F0A5F800283E
:100CC0003DD02148001D006801280FD11F48008831
:100CD000B0F5FA7F04DB4FF4FA701C49088012E08B
:100CE0001A480088401C194908800CE01748008801
:100CF0000A2803DC0A201549088004E0134800880C
:100D0000401E1249088011480488E01704EB106067
:100D1000C0F307210920FFF799FC0C480488E0176D
:100D200004EB10600012A4EB0020C1B20A20FFF710
:100D30008DFC064801880648008801F0ABF91020B8
:100D400000F05CF870BD0000100243420800002073
:100D50000A00002070B5002525480068012842D10E
:100D6000000200F051F800283DD02148001D006825
:100D700001280FD11F480088B0F5FA7F04DB4FF43B
:100D8000FA701C49088012E01A4800880A30194994
:100D900008800CE017480088002803DC0020154973
:100DA000088004E0134800880A3812490880114876
:100DB0000488E01704EB1060C0F307210720FFF759
:100DC00045FC0C480488E01704EB10600012A4EB0B
:100DD0000020C1B20820FFF739FC07480188054808
:100DE000008801F057F94FF4807000F007F870BDEB
:100DF000200241420A00002008000020014908604A
:100E000070470000143C014001460020034A12686C
:100E10000A400AB1012000E000207047143C014064
:100E2000002123498279002A3AD00A4612680368D1
:100E30009A430B461A600A1D126803689A430B1DF9
:100E40001A60027911440A6803681A430A60184A52
:100E50000832126803689A43154B08331A601A1D4A
:100E6000126803689A43124B0C331A604279102AB5
:100E70000ED11A1F126803681A430D4B08331A600B
:100E80001A1D126803681A43094B0C331A600DE0EF
:100E90000749427911440A6803681A430A6005E069
:100EA000027911440A6803689A430A607047000097
:100EB000003C014051B18200A2F1C042126842F0F0
:100EC00001038200A2F1C042136009E08200A2F196
:100ED000C0421268034B1A408300A3F1C0431A605A
:100EE00070470000FEFF0F00D0E901121143C268F5
:100EF0001143026911434269114382691143C26976
:100F00001143026A1143426A1143826A1143C26A61
:100F10001143026B114302689200A2F1C0421160BA
:100F2000816808290BD101688900A1F1C0410968D5
:100F300041F0400201688900A1F1C0410A60416BA3
:100F40000968426B526841EA0211426B926841EAB9
:100F50000221426B928941EA0241426B128A41EAC4
:100F60000251426B127D41EA0261426B9269114368
:100F70000268521C9200A2F1C0421160C16AB1F530
:100F8000804F1BD1816B0968826B526841EA021164
:100F9000826B926841EA0221826B128A41EA025115
:100FA000826B127D41EA0261826B92691143026891
:100FB0009200A2F1C042C2F8041107E06FF0704243
:100FC00001688900A1F1C041C1F804217047F0B562
:100FD0000A4600210023002400BF3DE0012505FA58
:100FE00001F3156805EA03049C4234D105684F00FB
:100FF0000326BE40B543056015794E00B54006682E
:10100000354305601579012D02D01579022D16D1D1
:1010100085684F000326BE40B543856055794E0074
:10102000B540866835438560456801268E40B543E6
:101030004560456896798E40B6B235434560C568CF
:101040004F000326BE40B543C560D5794E00B5407C
:10105000C6683543C560491C1029BFD3F0BDF0B543
:10106000002300244D07ED0E02FA05F3CE1000F127
:10107000200555F826504E07F70E0F26BE40B54303
:10108000CF1000F1200646F82750CE1000F12005C1
:1010900055F8265045EA0304CE1000F1200545F826
:1010A0002640F0BD418370470183704700B585B08D
:1010B0000121402001F0F8F90320039001208DF870
:1010C000100000208DF8120003208DF8110001207F
:1010D0008DF8130003A9FE48FFF779FF01210220D4
:1010E00001F0E2F94FF44060039001208DF8100008
:1010F00000208DF8120003208DF8110001208DF8DA
:10110000130003A9F348FFF762FF0121082001F053
:10111000CBF90C20039000208DF8100003208DF8EF
:10112000110002208DF8130003A9EB48FFF74FFFD1
:101130000121042001F0B8F94FF400600390002071
:101140008DF8100003208DF8110002208DF8130097
:1011500003A9E248FFF73BFF0121042001F0A4F9B5
:10116000C020039001208DF8100000208DF812009F
:1011700003208DF8110001208DF8130003A9D74832
:10118000FFF725FF0121082001F08EF94FF40050F0
:10119000039001208DF8100000208DF8120003202C
:1011A0008DF8110001208DF8130003A9CA48FFF73C
:1011B0000EFF0121402001F077F94FF4E670039013
:1011C00001208DF8100000208DF8120003208DF80A
:1011D000110001208DF8130003A9BD48FFF7F7FEA9
:1011E0004FF48060039001208DF8100000208DF8EE
:1011F000120003208DF8110001208DF8130003A9BF
:10120000B348FFF7E4FE4FF48061B148FFF74CFFAD
:101210000121402001F048F94FF4006003900020C4
:101220008DF8100003208DF8110001208DF81300B7
:1012300003A9A748FFF7CBFE0121022001F034F9F2
:1012400048F20200039001208DF8100000208DF874
:10125000120003208DF8110001208DF8130003A95E
:101260009C48FFF7B4FE48F202019A48FFF71AFFC4
:101270000121082001F018F94FF48050039001205B
:101280008DF8100000208DF8120003208DF8110059
:1012900001208DF8130003A98F48FFF798FE4FF443
:1012A00080518D48FFF7FEFE0121084601F0FCF851
:1012B0004FF4C050039000208DF8100003208DF8EB
:1012C000110002208DF8130003A98548FFF77FFE67
:1012D0000121042001F0E8F84FF440700390002051
:1012E0008DF8100003208DF8110002208DF81300F6
:1012F00003A97A48FFF76BFE0121102001F0D4F812
:101300001C20039000208DF8100003208DF81100A0
:1013100002208DF8130003A97248FFF758FE01213F
:10132000202001F0C1F80E20039000208DF810005D
:1013300003208DF8110002208DF8130003A96A48DC
:10134000FFF745FE0121402001F0AEF83020039068
:1013500000208DF8100003208DF8110002208DF878
:10136000130003A95A48FFF732FE0121880301F058
:10137000CBF80B21002001F007F90821022001F031
:1013800003F90121052001F0FFF80221052001F0F9
:10139000FBF80321052001F0F7F80421062001F0F5
:1013A000F3F80220019000208DF8080008208DF845
:1013B000090001208DF80A0001A8FFF731FD072080
:1013C0008DF8000001208DF8010002208DF8020048
:1013D00001208DF80300684600F0F0FF0420019022
:1013E00000208DF8080008208DF8090001208DF8F4
:1013F0000A0001A8FFF714FD08208DF80000012065
:101400008DF8010002208DF8020001208DF8030004
:10141000684600F0D3FF0820019000208DF80800F6
:1014200008208DF8090001208DF80A0001A8FFF7B7
:10143000F7FC09208DF8000001208DF80100022042
:101440008DF8020001208DF80300684600F0B6FF19
:101450001020019000208DF8080008208DF8090068
:1014600001208DF80A0001A8FFF7DAFC0A208DF8A8
:10147000000001208DF8010002208DF802000120FB
:101480008DF80300684600F099FF4FF480700190DA
:1014900000208DF8080008208DF8090001208DF843
:1014A0000A0001A8FFF7BCFC17208DF800000120FE
:1014B0008DF8010002208DF8020001208DF8030054
:1014C000684600F07BFF4FF40060019000200DE0C3
:1014D0000018024000040240000C024000080240D4
:1014E0000000024000100240001402408DF8080085
:1014F00008208DF8090001208DF80A0001A8FFF7E7
:101500008FFC28208DF8000001208DF801000220BA
:101510008DF8020001208DF80300684600F04EFFB0
:1015200005B000BD00BFFEE710B5184800680128EF
:1015300002D11749087002E00020154908701548CB
:1015400000781349097888421FD011480078114962
:10155000087008460078012809D10F490860642006
:1015600003F0AAFF01200D49C1F8840205E0002024
:10157000094908600949C1F884020648007802F068
:10158000DFFE0448007800F049FB10BD08824142AC
:101590000C00002020000020BC824042008040421D
:1015A00010B514480068012802D11349087002E000
:1015B000002011490870114800780F4909788842C5
:1015C00017D00D4800780D490870084600780128AA
:1015D00003D10849A431086003E000200549A43183
:1015E00008600648007802F06BFF0448007800F0BD
:1015F00023FC10BD0C8241420D0000202100002080
:1016000010B51E480068012802D11D49087002E08B
:1016100000201B4908701B48007819490978884246
:101620002AD0174800781749087008460078012822
:101630000BD101211448FFF721F901211020FFF7F8
:1016400027F801211020FFF737F80E48007858B925
:1016500000210D48FFF712F900211020FFF718F8BC
:1016600000211020FFF728F80648007800F022FB40
:101670000448007802F08EFE10BD00002C024142AA
:101680000E00002022000020A06002402DE9F04F53
:1016900091B005260527B046B146B246B3460520AF
:1016A00010900F90A3A103C9CDE90D01A3A103C917
:1016B000CDE90B01A3A103C9CDE90901A3A103C988
:1016C000CDE90701A3A000680690A3A103C9CDE955
:1016D0000401A3A103C9CDE90201A3A103C9CDE976
:1016E0000001002518E0062101FB0561C8B20021B8
:1016F00000F0E2F900240BE00DA9495D01EB410186
:101700009B4A02EB4101085D00F00EFE601CC4B272
:10171000062CF1DB681CC5B2062DE4DB002518E0C1
:10172000062101FB0571C8B2012100F0C5F90024B2
:101730000BE00BA9495D01EB41018D4A02EB410130
:10174000085D00F0F1FD601CC4B2062CF1DB681CE2
:10175000C5B2062DE4DB002518E0062101FB05815A
:10176000C8B2022100F0A8F900240BE009A9495DE4
:1017700001EB41017E4A02EB4101085D00F0D4FD1E
:10178000601CC4B2062CF1DB681CC5B2062DE4DB7C
:10179000002518E0062101FB0591C8B2032100F0E5
:1017A0008BF900240BE007A9495D01EB4101704A68
:1017B00002EB4101085D00F0B7FD601CC4B2062CCD
:1017C000F1DB681CC5B2062DE4DB002519E006221A
:1017D0000F9902FB0511C8B2042100F06DF9002435
:1017E0000BE006A9495D01EB4101614A02EB4101B1
:1017F000085D00F099FD601CC4B2062CF1DB681C8A
:10180000C5B2042DE3DB002518E0062101FB05A18C
:10181000C8B2052100F050F900240BE004A9495D8D
:1018200001EB4101524A02EB4101085D00F07CFDF1
:10183000601CC4B2062CF1DB681CC5B2062DE4DBCB
:10184000002518E0062101FB05B1C8B2062100F011
:1018500033F900240BE002A9495D01EB4101444A40
:1018600002EB4101085D00F05FFD601CC4B2062C74
:10187000F1DB681CC5B2052DE4DB002519E006226A
:10188000109902FB0511C8B2072100F015F90024D8
:101890000BE01DF8051001EB4101354A02EB410157
:1018A000085D00F041FD601CC4B2062CF1DB681C31
:1018B000C5B2082DE3DB02212A2000F0FDF8002448
:1018C00006E02B49C631085D00F02EFD601CC4B255
:1018D000062CF6DB03212A2000F0EEF8002406E0B7
:1018E0002349C631085D00F01FFD601CC4B2062C00
:1018F000F6DB02214B2000F0DFF8002406E01C4953
:10190000E431085D00F010FD601CC4B2062CF6DB6B
:1019100003214B2000F0D0F8002406E01449E43104
:10192000085D00F001FD601CC4B2062CF6DB11B0AE
:10193000BDE8F08F21242E554D1A000030554C5330
:10194000451A000033494E45111A000033494E45EF
:10195000121A00003245441A2C415345521A000015
:101960002D4F44451A0000003741524E494E471A48
:10197000E256000870B50646002415E004F1B001F7
:10198000C8B200F08BFC012000F088FC102000F0B1
:1019900085FC002504E0304600F0C6FC681CC5B29A
:1019A000802DF8DB601CC4B2082CE7DB70BD0000A2
:1019B00010B54FF480613E48FFF776FB02213D48A9
:1019C000FFF770FB322003F077FD02213948FFF763
:1019D0006BFB002000F017FF0A2003F06DFD802054
:1019E00000F0FFFE0A2003F067FD3F2000F020FF1B
:1019F0000A2003F061FD002000F0FCFE0A2003F045
:101A00005BFD002000F054FE0A2003F055FD042089
:101A100000F0CCFE0A2003F04FFD022000F036FE5D
:101A20000A2003F049FD012000F014FF0A2003F012
:101A300043FD082000F0CEFE0A2003F03DFD1020FB
:101A400000F0BEFE0A2003F037FDCF2000F027FE95
:101A50000A2003F031FDF12000F0F3FE0A2003F02C
:101A60002BFD402000F0FDFE0A2003F025FD0020A4
:101A700000F0D0FE0A2003F01FFD002000F0D1FE90
:101A80000A2003F019FD012000F0BDFE0A2003F03A
:101A900013FD0020FFF76EFF0A2003F00DFD00216B
:101AA000084600F009F80A2003F006FD10BD00000A
:101AB000000402400018024070B504460D4605F1CE
:101AC000B001C8B200F0EAFB102141EA141000F0A6
:101AD000E5FB04F00F0141F0010000F0DFFB70BDF9
:101AE0002DE9F04106462A27072526E007F12A01BD
:101AF000062202FB1511C8B20021FFF7DDFF01200D
:101B0000A840304050B1002405E04349085D00F092
:101B10000BFC601CC4B2062CF7DB0AE0002406E0D4
:101B20003D49891F085D00F0FFFB601CC4B2062C14
:101B3000F6DB05B903E0681EC5B2002DD6DA00BF9A
:101B400000215F20FFF7B8FF642096FBF0F0C5B2DC
:101B5000632E11DD00240CE005F1100101EB4101C1
:101B60002D4A663A02EB4101085D00F0DDFB601C86
:101B7000C4B2062CF0DB08E0002404E0002000F0F2
:101B8000D3FB601CC4B2062CF8DB00216520FFF7F4
:101B900093FF642096FBF0F100FB11600A2190FB9B
:101BA000F1F0C5B2092E11DD00240CE005F11001A1
:101BB00001EB4101184A663A02EB4101085D00F071
:101BC000B3FB601CC4B2062CF0DB08E0002404E088
:101BD000002000F0A9FB601CC4B2062CF8DB002139
:101BE0006B20FFF769FF0A2096FBF0F100FB116004
:101BF000C5B200240CE005F1100101EB4101064AD9
:101C0000663A02EB4101085D00F08EFB601CC4B235
:101C1000062CF0DBBDE8F0814857000870B505469A
:101C20002A2605213046FFF747FF012D1ED100244B
:101C300004E0002000F078FB601CC4B2062CF8DB46
:101C4000002405E01A49085D00F06EFB601CC4B278
:101C5000062CF7DB002406E01549891F085D00F01B
:101C600063FB601CC4B2062CF6DB1FE0002405E019
:101C70000F49085D00F058FB601CC4B2062CF7DB6E
:101C8000002406E00A493639085D00F04DFB601C6F
:101C9000C4B2062CF6DB002406E005493639085D9F
:101CA00000F042FB601CC4B2062CF6DB70BD0000E5
:101CB000BC58000870B50546242606213046FFF7BB
:101CC000FBFE012D0AD1002405E00A49085D00F061
:101CD0002BFB601CC4B2062CF7DB0AE0002406E0F4
:101CE0000449891F085D00F01FFB601CC4B2062C6C
:101CF000F6DB70BD4E5700082DE9F041054632274E
:101D00004FF47A7095FBF0F0C6B201213846FFF728
:101D1000D3FEB5F57A7F10DB00240BE006F110014D
:101D200001EB4101434A02EB4101085D00F0FCFA7E
:101D3000601CC4B2062CF1DB08E0002404E00020A3
:101D400000F0F2FA601CC4B2062CF8DB4FF47A7093
:101D500095FBF0F100FB1150642190FBF1F0C6B24D
:101D6000B91DC8B20121FFF7A7FE632D10DD0024C5
:101D70000BE006F1100101EB41012E4A02EB41019B
:101D8000085D00F0D1FA601CC4B2062CF1DB08E05B
:101D9000002404E0002000F0C7FA601CC4B2062C46
:101DA000F8DB642095FBF0F100FB11500A2190FB59
:101DB000F1F0C6B207F10C01C8B20121FFF77CFEB9
:101DC000092D10DD00240BE006F1100101EB4101AB
:101DD000184A02EB4101085D00F0A6FA601CC4B28B
:101DE000062CF1DB08E0002404E0002000F09CFA5F
:101DF000601CC4B2062CF8DB0A2095FBF0F100FB56
:101E00001150C6B207F11201C8B20121FFF754FE0A
:101E100000240BE006F1100101EB4101054A02EB41
:101E20004101085D00F080FA601CC4B2062CF1DBB1
:101E3000BDE8F081E256000870B505462026042171
:101E40003046FFF739FE012D1ED1002404E00020AA
:101E500000F06AFA601CC4B2062CF8DB002405E02E
:101E60001A49085D00F060FA601CC4B2062CF7DB6A
:101E7000002406E01549891F085D00F055FA601C32
:101E8000C4B2062CF6DB1FE0002405E00F49085D14
:101E900000F04AFA601CC4B2062CF7DB002406E00E
:101EA0000A493639085D00F03FFA601CC4B2062CBE
:101EB000F6DB002406E005493639085D00F034FA07
:101EC000601CC4B2062CF6DB70BD0000BC580008D4
:101ED0002DE9F04705460E464FF032084FF0550900
:101EE000642095FBF0F0C7B202214046FFF7E4FD05
:101EF000632D10DD00240BE007F1100101EB41011F
:101F0000634A02EB4101085D00F00EFA601CC4B2A6
:101F1000062CF1DB08E0002404E0002000F004FAC5
:101F2000601CC4B2062CF8DB642095FBF0F100FBCA
:101F300011500A2190FBF1F0C7B208F10601C8B2B6
:101F40000221FFF7B9FD092D10DD00240BE007F198
:101F5000100101EB41014E4A02EB4101085D00F026
:101F6000E3F9601CC4B2062CF1DB08E0002404E0B5
:101F7000002000F0D9F9601CC4B2062CF8DB0A205E
:101F800095FBF0F100FB1150C7B208F10C01C8B28B
:101F90000221FFF791FD00240BE007F1100101EB96
:101FA00041013B4A02EB4101085D00F0BDF9601CB4
:101FB000C4B2062CF1DB642096FBF0F0C7B202211C
:101FC0004846FFF779FD632E10DD00240BE007F192
:101FD000100101EB41012E4A02EB4101085D00F0C6
:101FE000A3F9601CC4B2062CF1DB08E0002404E075
:101FF000002000F099F9601CC4B2062CF8DB6420C4
:1020000096FBF0F100FB11600A2190FBF1F0C7B2E2
:1020100009F10601C8B20221FFF74EFD092E10DDBD
:1020200000240BE007F1100101EB4101184A02EB1B
:102030004101085D00F078F9601CC4B2062CF1DBA8
:1020400008E0002404E0002000F06EF9601CC4B237
:10205000062CF8DB0A2096FBF0F100FB1160C7B2FA
:1020600009F10C01C8B20221FFF726FD00240BE0A4
:1020700007F1100101EB4101054A02EB4101085D46
:1020800000F052F9601CC4B2062CF1DBBDE8F08709
:10209000E25600082DE9F04705460E464FF032089B
:1020A0004FF05509642095FBF0F0C7B2032140467C
:1020B000FFF702FD632D10DD00240BE007F1100196
:1020C00001EB4101634A02EB4101085D00F02CF98C
:1020D000601CC4B2062CF1DB08E0002404E0002000
:1020E00000F022F9601CC4B2062CF8DB642095FBDA
:1020F000F0F100FB11500A2190FBF1F0C7B208F19A
:102100000601C8B20321FFF7D7FC092D10DD00241A
:102110000BE007F1100101EB41014E4A02EB4101D6
:10212000085D00F001F9601CC4B2062CF1DB08E088
:10213000002404E0002000F0F7F8601CC4B2062C74
:10214000F8DB0A2095FBF0F100FB1150C7B208F153
:102150000C01C8B20321FFF7AFFC00240BE007F12C
:10216000100101EB41013B4A02EB4101085D00F027
:10217000DBF8601CC4B2062CF1DB642096FBF0F0A7
:10218000C7B203214846FFF797FC632E10DD0024F9
:102190000BE007F1100101EB41012E4A02EB410176
:1021A000085D00F0C1F8601CC4B2062CF1DB08E049
:1021B000002404E0002000F0B7F8601CC4B2062C34
:1021C000F8DB642096FBF0F100FB11600A2190FB24
:1021D000F1F0C7B209F10601C8B20321FFF76CFCA8
:1021E000092E10DD00240BE007F1100101EB410185
:1021F000184A02EB4101085D00F096F8601CC4B279
:10220000062CF1DB08E0002404E0002000F08CF84C
:10221000601CC4B2062CF8DB0A2096FBF0F100FB30
:102220001160C7B209F10C01C8B20321FFF744FCE9
:1022300000240BE007F1100101EB4101054A02EB1C
:102240004101085D00F070F8601CC4B2062CF1DB9F
:10225000BDE8F087E256000870B50546372607212D
:102260003046FFF729FC012D0AD1002405E00A4978
:10227000085D00F059F8601CC4B2062CF7DB0AE0D8
:10228000002406E00449891D085D00F04DF8601C3B
:10229000C4B2062CF6DB70BD4257000870B5044688
:1022A000082501211E48FEF7FDFE012003F020F95C
:1022B000E9011C48FEF7F6FE052003F019F928E0B5
:1022C00004F0800040B14FF400611648FEF7ECFEC8
:1022D000012003F00DF907E04FF400611148FEF70B
:1022E000E1FE012003F004F94FF480610D48FEF790
:1022F000DBFE032003F0FCF84FF480610948FEF791
:10230000D1FE012003F0F4F86006040E012003F072
:10231000EFF8281EA5F10101CDB2D1D170BD0000AA
:10232000001802400004024070B50446082501214F
:102330001E48FEF7B9FE012003F0DAF8E9011C4857
:10234000FEF7B0FE052003F0D3F828E004F080008B
:1023500040B14FF400611648FEF7A6FE012003F0DD
:10236000C7F807E04FF400611148FEF79BFE01201B
:1023700003F0BEF84FF480610D48FEF795FE032090
:1023800003F0B6F84FF480610948FEF78BFE012098
:1023900003F0AEF86006040E012003F0A9F8281E31
:1023A000A5F10101CDB2D1D170BD000000180240ED
:1023B0000004024000BFFEE77047000070B5002136
:1023C00000230F22C4781CB3174C246804F4E06483
:1023D000C4F5E064C4F30721C1F10404E3B20A4187
:1023E00044789C40E1B28478144021430C07210ECC
:1023F0000E4C05786155047804F01F050124AC40AB
:1024000005786D11AD0005F1E025C5F8004109E042
:10241000047804F01F050124AC40054D06787611C0
:1024200045F8264070BD00000CED00E000E400E03F
:1024300080E100E002490143024A11607047000058
:102440000000FA050CED00E0704700001CB51048D4
:10245000008810490988884219D00A2003F02CF816
:102460000C4800880A490880084600880A4991FB00
:10247000F0F0401E0949088041F2883009880223A3
:10248000074ACDE900105115064802F081FF1CBD36
:1024900012000020020000204090020028000020CE
:1024A000000001400000024029B1064A12680243C0
:1024B000044B1A6004E0034A12688243014B1A601D
:1024C000704700003038024029B1064A12680243C2
:1024D000044B1A6004E0034A12688243014B1A60FD
:1024E000704700003838024029B1064A126802439A
:1024F000044B1A6004E0034A12688243014B1A60DD
:10250000704700004038024029B1064A1268024371
:10251000044B1A6004E0034A12688243014B1A60BC
:10252000704700004438024010B51348006818B9DD
:1025300001201249087002E000201049087010487C
:1025400000780E490978884214D00C4800780C496C
:10255000087008460078012804D1002006497C3123
:10256000086003E0012004497C31086004480078D9
:10257000FFF772FE10BD00002C0243420F00002046
:10258000230000207047000030B500228B071C0F8D
:102590000F2303FA04F20B4B8C1053F824309343AF
:1025A000084C8D1044F8253023468C1053F8243005
:1025B0008C07240F00FA04F42343024C8D1044F8D6
:1025C000253030BD0838014000F0010119B101216A
:1025D0002B4A116002E00021294A116000F002013B
:1025E00021B10121264A121F116003E00021244A73
:1025F000121F116000F0040119B10121214A11607C
:1026000002E000211F4A116000F0080121B1012100
:102610001C4A121F116003E000211A4A121F1160A8
:1026200000F0100121B10121164A103A116003E0B7
:102630000021144A103A116000F0200121B101215B
:10264000104A143A116003E000210E4A143A116056
:1026500000F0400121B101210A4A121D116003E07E
:102660000021084A121D116000F0800119B10121FA
:10267000054A116002E00021034A11607047000022
:102680009C0241429C024342B482414210B504463E
:102690002020FFF703FE2046FFF700FE10BD10B517
:1026A00004468120FFF7FAFD2046FFF7F7FD10BD35
:1026B00010B5044644F04000FFF7F0FD10BD0000E7
:1026C0000CB50020019000903448006840F4803040
:1026D0003249086000BF3148006800F400300090C3
:1026E0000198401C0190009818B90198B0F5A04FCE
:1026F000F1D12A48006800F4003010B101200090A8
:1027000001E0002000900098012846D12348403085
:10271000006840F08050214940310860204800683E
:1027200040F440401E4908601C48083000681B49BE
:10273000083108600846006840F400400860084618
:10274000006840F4A05008601648091F0860081F80
:10275000006840F08070091F086000BF0F480068E3
:1027600000F000700028F9D040F205700E490860B2
:102770000A480830006820F0030008490831086062
:102780000846006840F00200086000BF03480830B7
:10279000006800F00C000828F8D10CBD0038024099
:1027A0000070004008544007003C024010B5044649
:1027B0008D20FFF773FD44F01000FFF76FFD10BD93
:1027C00010B50446DA20FFF769FD44F00200FFF778
:1027D00065FD10BD10B5044644F0C000FFF75EFD76
:1027E00010BD10B50446D520FFF758FD2046FFF771
:1027F00055FD10BD10B50446D320FFF74FFD204610
:10280000FFF74CFD10BD10B5044644F0AE00FFF7D5
:1028100045FD10BD10B5044644F0A400FFF73EFD91
:1028200010BD10B5044644F0A600FFF737FD10BDFB
:1028300010B50446A820FFF731FD2046FFF72EFD16
:1028400010BD10B50446D920FFF728FD2046FFF73C
:1028500025FD10BD10B5044644F0A000FFF71EFD95
:1028600010BD10B50446DB20FFF718FD2046FFF72A
:1028700015FD10BDF0B523277426002419E030198A
:1028800081B2384601F0B4FC301981B2384601F00B
:10289000AFFC02F07BF9002505E0074800880749F6
:1028A0000880681C85B240F2DA208542F5DB601CA6
:1028B000C4B2052CE3DBF0BD380000208000006CC2
:1028C00010B51F4800881F490988884205D11E4855
:1028D00000881E490988884231D00A2002F0ECFDA8
:1028E000184800881649088018480088164908804A
:1028F000144801881448008802F086FE12480088B7
:102900004AF2104191FBF0F0401E11490880084640
:10291000008802F04FF9FDF7E5FE0E480078012827
:1029200005D14FF4C8710C4802F045FB03E00021CB
:10293000094802F040FB0348008801F009FF10BD80
:1029400016000020060000201400002004000020D3
:102950001C000020200000200004004010B5164894
:10296000008816490988884205D11548008815490C
:10297000098888421FD0142002F09EFD0F4800886D
:102980000D4908800F4800880D4908800B480188D0
:102990000B48008802F06CFE094800884AF210419A
:1029A00091FBF0F0401E084908800846008802F0BC
:1029B00053F9FDF7E7FE10BD1A0000200A000020C1
:1029C00018000020080000201E0000201CB5FEF7A3
:1029D0005DFE0020FDF7AAFDC24908700846007898
:1029E000FFF77EF8BF48007801F028FCBD4800786A
:1029F000BD490870BB480078FFF7E6FD0120FDF7F0
:102A000095FDBA490880084600884FF6FF7101EA33
:102A10000020B64908800220FDF788FDB3490988E7
:102A20000844B249088008460088B1490880084631
:102A30000088B04991FBF0F0401EAF49088041F298
:102A4000883009880223AD4ACDE900105115AC4801
:102A500002F09EFCA548008801F0DCFCA348008839
:102A6000FFF74AF90320FDF761FDA64908800846F3
:102A700000884FF6FF7101EA0020A2490880042077
:102A8000FDF754FD9F49098808449E4908800520A8
:102A9000FDF74CFD9C490880084600884FF6FF7101
:102AA00001EA0020984908800620FDF73FFD96497D
:102AB000098808449449088008460188914800889C
:102AC000FFF706FA8F480088904908808E480088F2
:102AD0008F4908808B4801888D48008802F094FD5A
:102AE0008B4800884AF2104191FBF0F0401E894962
:102AF00008800846008802F05DF8FDF7F3FD814884
:102B0000008801F025FE0720FDF710FD82490880AE
:102B1000084600884FF6FF7101EA00207E490880D0
:102B20000820FDF703FD7C49098808447A4908809C
:102B30000920FDF7FBFC79490880084600884FF61C
:102B4000FF7101EA0020754908800A20FDF7EEFCBC
:102B500072490988084471490880084601886E480E
:102B60000088FFF797FA6C4800886D4908806B4829
:102B700000886C490880684801886A48008802F02B
:102B800077FD684800884AF2104191FBF0F0401E42
:102B9000654908800846008802F05EF8FDF7F2FDFE
:102BA00062480068012802D16149087002E00020F3
:102BB0005F4908705E4800785E49087008460078F2
:102BC00001280AD15C490860642002F075FC4FF4CA
:102BD000C8715A4802F0EFF906E000205649086033
:102BE0000021564802F0E7F952480078FFF716F83E
:102BF0005048007801F0A4FB4C48001D00680128F3
:102C000002D14F49087002E000204D4908704C483D
:102C100000784C49087008460078012803D14349E0
:102C2000A831086003E000204049A8310860454809
:102C30000078FFF701F94348007801F041FC424871
:102C40000068012802D14149087002E000203F4994
:102C500008703E4800783E49087008460078012810
:102C60000CD101213B48FDF709FE01211020FDF7A1
:102C70000FFD01211020FDF71FFD0BE0002135485D
:102C8000FDF7FCFD00211020FDF702FD00211020C2
:102C9000FDF712FD2E48007801F07CFB2C480078EF
:102CA000FFF708F82C48006818B901202B49087074
:102CB00002E0002029490870284800782849087057
:102CC00008460078012804D1002023497C3108609F
:102CD00003E0012020497C31086021480078FFF79B
:102CE000BBFA1CBD000000201100002002000020E3
:102CF0001200002040900200280000200000014047
:102D00000000024006000020040000201600002001
:102D1000140000201C0000200A00002008000020F1
:102D20001A000020180000201E00002008824142E6
:102D30000C00002020000020BC8240420004004023
:102D40000D000020210000202C0241420E00002036
:102D500022000020A06002402C0243420F0000200D
:102D600023000020042808D14FF0E021096941F038
:102D700004014FF0E022116107E04FF0E021096902
:102D800021F004014FF0E02211617047704700000C
:102D900010B51548006840F47000134908601348E6
:102DA000006840F001001149086000200F49083117
:102DB00008600E4800680E4908400C4908600D483C
:102DC000091D0860081F006820F48020091F0860A2
:102DD000002006490C310860FFF772FC4FF00060DC
:102DE00001498039086010BD88ED00E000380240DC
:102DF000FFFFF6FE1030002470B504460026094897
:102E00000588408845430021084601F0F1F901F0AA
:102E1000BDFE00BF02E004480480761CAE42FAD337
:102E200070BD0000DC0F00208000006C10B504466F
:102E300094B90020134988714FF4305008814FF441
:102E4000285048814FF42C5088814FF4F07008804E
:102E50004FF44870488011E001200A4988714FF40E
:102E6000305008814FF4285048814FF42C5088810D
:102E70004FF4487008804FF4F0704880072001F04C
:102E800019F910BDDC0F002000B5A1B00020209082
:102E900001217E20FFF708FB01210846FFF714FB04
:102EA0004FF480501E9001208DF87C0000208DF89A
:102EB0007E0002208DF87D0001208DF87F001EA984
:102EC000FE48FEF784F84CF233701E9002208DF815
:102ED0007C0000208DF87E0003208DF87D0001200D
:102EE0008DF87F001EA9F648FEF771F84FF6807046
:102EF0001E9002208DF87C0000208DF87E000320BB
:102F00008DF87D0001208DF87F001EA9ED48FEF7A9
:102F10005EF84FF480501E9002208DF87C00002057
:102F20008DF87E0003208DF87D0001208DF87F0054
:102F30001EA9E548FEF74BF84FF480501E90022082
:102F40008DF87C0000208DF87E0003208DF87D0038
:102F500001208DF87F001EA9DC48FEF738F80C220E
:102F60000021D748FEF77BF80C220121D448FEF758
:102F700076F80C220421D248FEF771F80C220521C4
:102F8000CF48FEF76CF80C220821CD48FEF767F811
:102F90000C220921CA48FEF762F80C220A21C8480F
:102FA000FEF75DF80C220E21C548FEF758F80C22FA
:102FB0000F21C348FEF753F80C220721C148FEF742
:102FC0004EF80C220821BF48FEF749F80C220921CF
:102FD000BC48FEF744F80C220A21BA48FEF73FF835
:102FE0000C220B21B748FEF73AF80C221146B548DF
:102FF000FEF735F80C220D21B248FEF730F80C220E
:103000000E21B048FEF72BF80C220F21AD48FEF739
:1030100026F80C221146AC48FEF721F80C22114686
:10302000AA48FEF71CF80F200890002009903C20C9
:103030000A9000200B900C900D900E9009200190AA
:1030400000200290082003900020049001200590A9
:1030500006900020079006200F90002010901190FD
:103060001020129000201390159014901690179035
:103070004FF480501890002019904FF480401A901F
:1030800000201B9008A81C9001A81D900FA8FDF718
:103090002BFF01210620FDF70DFF322002F00CFA74
:1030A0000121002001F07CFD322002F005FA002011
:1030B00000F0F2FF8649888008468088FF280ADBF6
:1030C000084680884FF6FF71884204D08048808887
:1030D000B0F5134F1DD1D32001F04CFD00F0D2FF0D
:1030E0007B49888000F0CEFF7949888000F0CAFFD4
:1030F00077498880084680884FF6FF7101EA0020F2
:103100007349888000F0BEFF71498988084370497F
:1031100088807048006820F00F004FF02041C1F80F
:103120001C010846D0F81C0120F47060C1F81C0195
:103130000846D0F81C0140F00300C1F81C01084605
:10314000D0F81C0140F40070C1F81C0155214FF467
:10315000704001F025FDAA214FF2010001F020FD91
:1031600052214FF2020001F01BFD08214FF2030033
:1031700001F016FD01214FF2040001F011FD0D21B7
:103180004FF4304001F00CFD0D214BF2010001F035
:1031900007FD0D214BF2020001F002FD34214FF436
:1031A000364001F0FDFC34214BF2016001F0F8FCE7
:1031B00034214BF2026001F0F3FC0D214FF4314059
:1031C00001F0EEFC0D214BF2011001F0E9FC0D21A4
:1031D0004BF2021001F0E4FC34214FF4374001F0CF
:1031E000DFFC34214BF2017001F0DAFC34214BF2A8
:1031F000027001F0D5FC00214FF4324001F0D0FC08
:1032000000214BF2012001F0CBFC00214BF2022007
:1032100001F0C6FC24214FF4384001F0C1FC242108
:103220004BF6010001F0BCFC24214BF6020001F03A
:10323000B7FC01214FF43F4001F0B2FC0F214FF4E5
:10324000334001F0ADFC0F214BF2013001F0A8FC3E
:103250000F214BF2023001F0A3FC34214FF439402E
:1032600001F09EFC34214BF6011001F099FC342151
:103270004BF6021001F094FC08214FF4354001F0A8
:103280008FFC08214BF2015001F08AFC08214BF21F
:10329000025001F085FC03214FF4424001F080FC14
:1032A00024214FF43A4001F07BFC24214BF601200D
:1032B00001F076FC24214BF602200DE000080240CC
:1032C000000C0240001002400014024000180240AE
:1032D000DC0F00201C0100A001F062FC00214FF473
:1032E0003C4001F05DFC78214BF6014001F058FCB8
:1032F00000214BF6024001F053FC00214FF43D4009
:1033000001F04EFC78214BF6015001F049FC002100
:103310004BF6025001F044FC00214FF43E4001F016
:103320003FFC64214BF6016001F03AFC00214FF4B0
:10333000514001F035FC33214DF2011001F030FC19
:1033400000214DF2021001F02BFC34214DF203104C
:1033500001F026FC00214DF2041001F021FC3A217D
:103360004DF2051001F01CFC00214DF2061001F099
:1033700017FC4A214DF2071001F012FC00214DF21A
:10338000081001F00DFC5C214DF2091001F008FC61
:1033900000214DF20A1001F003FC81214DF20B10C7
:1033A00001F0FEFB00214DF20C1001F0F9FBA6210B
:1033B0004DF20D1001F0F4FB00214DF20E1001F062
:1033C000EFFBE5214DF20F1001F0EAFB01214DF278
:1033D000101001F0E5FB13214DF2111001F0E0FB9C
:1033E00001214DF2121001F0DBFB54214DF21310BC
:1033F00001F0D6FB01214DF2141001F0D1FB822126
:103400004DF2151001F0CCFB01214DF2161001F028
:10341000C7FBCA214DF2171001F0C2FB02214DF289
:10342000181001F0BDFB00214DF2191001F0B8FB9E
:1034300002214DF21A1001F0B3FB01214DF21B10D5
:1034400001F0AEFB02214DF21C1001F0A9FB34216A
:103450004DF21D1001F0A4FB02214DF21E1001F0EF
:103460009FFB67214DF21F1001F09AFB02214DF2E4
:10347000201001F095FB84214DF2211001F090FB0A
:1034800002214DF2221001F08BFBA4214DF22310FA
:1034900001F086FB02214DF2241001F081FBB721DF
:1034A0004DF2251001F07CFB02214DF2261001F0B7
:1034B00077FBCF214DF2271001F072FB02214DF274
:1034C000281001F06DFBDE214DF2291001F068FBA0
:1034D00002214DF22A1001F063FBF2214DF22B1074
:1034E00001F05EFB02214DF22C1001F059FBFE2190
:1034F0004DF22D1001F054FB03214DF22E1001F07E
:103500004FFB10214DF22F1001F04AFB03214DF229
:10351000301001F045FB33214DF2311001F040FB3A
:1035200003214DF2321001F03BFB6D214DF23310BF
:1035300001F036FB00214FF4524001F031FB332102
:103540004DF2012001F02CFB00214DF2022001F090
:1035500027FB34214DF2032001F022FB00214DF224
:10356000042001F01DFB3A214DF2052001F018FB6B
:1035700000214DF2062001F013FB4A214DF20720F5
:1035800001F00EFB00214DF2082001F009FB5C2147
:103590004DF2092001F004FB00214DF20A2001F058
:1035A000FFFA81214DF20B2001F0FAFA00214DF2D1
:1035B0000C2001F0F5FAA6214DF20D2001F0F0FAF1
:1035C00000214DF20E2001F0EBFAE5214DF20F2023
:1035D00001F0E6FA01214DF2102001F0E1FA132189
:1035E0004DF2112001F0DCFA01214DF2122001F020
:1035F000D7FA54214DF2132001F0D2FA01214DF2F5
:10360000142001F0CDFA82214DF2152001F0C8FA04
:1036100001214DF2162001F0C3FACA214DF2172004
:1036200001F0BEFA02214DF2182001F0B9FA002192
:103630004DF2192001F0B4FA02214DF21A2001F0E6
:10364000AFFA01214DF21B2001F0AAFA02214DF23E
:103650001C2001F0A5FA34214DF21D2001F0A0FA42
:1036600002214DF21E2001F09BFA67214DF21F202E
:1036700001F096FA02214DF2202001F091FA842106
:103680004DF2212001F08CFA02214DF2222001F0AE
:1036900087FAA4214DF2232001F082FA02214DF293
:1036A000242001F07DFAB7214DF2252001F078FAAF
:1036B00002214DF2262001F073FACF214DF227208E
:1036C00001F06EFA02214DF2282001F069FADE21A4
:1036D0004DF2292001F064FA02214DF22A2001F076
:1036E0005FFAF2214DF22B2001F05AFA02214DF23D
:1036F0002C2001F055FAFE214DF22D2001F050FA58
:1037000003214DF22E2001F04BFA10214DF22F2013
:1037100001F046FA03214DF2302001F041FA332145
:103720004DF2312001F03CFA03214DF2322001F03C
:1037300037FA6D214DF2332001F032FA00214FF4B7
:10374000534001F02DFA33214DF2013001F028FAF7
:1037500000214DF2023001F023FA34214DF2033002
:1037600001F01EFA00214DF2043001F019FA3A215D
:103770004DF2053001F014FA00214DF2063001F04F
:103780000FFA4A214DF2073001F00AFA00214DF2FA
:10379000083001F005FA5C214DF2093001F000FA21
:1037A00000214DF20A3001F0FBF981214DF20B307E
:1037B00001F0F6F900214DF20C3001F0F1F9A621EB
:1037C0004DF20D3001F0ECF900214DF20E3001F018
:1037D000E7F9E5214DF20F3001F0E2F901214DF258
:1037E000103001F0DDF913214DF2113001F0D8F95C
:1037F00001214DF2123001F0D3F954214DF2133072
:1038000001F0CEF901214DF2143001F0C9F9822105
:103810004DF2153001F0C4F901214DF2163001F0DE
:10382000BFF9CA214DF2173001F0BAF902214DF269
:10383000183001F0B5F900214DF2193001F0B0F95E
:1038400002214DF21A3001F0ABF901214DF21B308B
:1038500001F0A6F902214DF21C3001F0A1F934214A
:103860004DF21D3001F09CF902214DF21E3001F0A5
:1038700097F967214DF21F3001F092F902214DF2C4
:10388000203001F08DF984214DF2213001F088F9CA
:1038900002214DF2223001F083F9A4214DF22330B0
:1038A00001F07EF902214DF2243001F079F9B721BF
:1038B0004DF2253001F074F902214DF2263001F06D
:1038C0006FF9CF214DF2273001F06AF902214DF254
:1038D000283001F065F9DE214DF2293001F060F960
:1038E00002214DF22A3001F05BF9F2214DF22B302A
:1038F00001F056F902214DF22C3001F051F9FE2170
:103900004DF22D3001F04CF903214DF22E3001F033
:1039100047F910214DF22F3001F042F903214DF209
:10392000303001F03DF933214DF2313001F038F9FA
:1039300003214DF2323001F033F96D214DF2333075
:1039400001F02EF900214FF4544001F029F9332100
:103950004DF2014001F024F900214DF2024001F046
:103960001FF934214DF2034001F01AF900214DF204
:10397000044001F015F93A214DF2054001F010F92B
:1039800000214DF2064001F00BF94A214DF20740AB
:1039900001F006F900214DF2084001F001F95C2127
:1039A0004DF2094001F0FCF800214DF20A4001F00F
:1039B000F7F881214DF20B4001F0F2F800214DF2B1
:1039C0000C4001F0EDF8A6214DF20D4001F0E8F8B1
:1039D00000214DF20E4001F0E3F8E5214DF20F40D9
:1039E00001F0DEF801214DF2104001F0D9F8132169
:1039F0004DF2114001F0D4F801214DF2124001F0D6
:103A0000CFF854214DF2134001F0CAF801214DF2D4
:103A1000144001F0C5F882214DF2154001F0C0F8C4
:103A200001214DF2164001F0BBF8CA214DF21740BA
:103A300001F0B6F802214DF2184001F0B1F8002172
:103A40004DF2194001F0ACF802214DF21A4001F09C
:103A5000A7F801214DF21B4001F0A2F802214DF21E
:103A60001C4001F09DF834214DF21D4001F098F802
:103A700002214DF21E4001F093F867214DF21F40E4
:103A800001F08EF802214DF2204001F089F88421E6
:103A90004DF2214001F084F802214DF2224001F064
:103AA0007FF8A4214DF2234001F07AF802214DF273
:103AB000244001F075F8B7214DF2254001F070F86F
:103AC00002214DF2264001F06BF8CF214DF2274044
:103AD00001F066F802214DF2284001F061F8DE2184
:103AE0004DF2294001F05CF802214DF22A4001F02C
:103AF00057F8F2214DF22B4001F052F802214DF21D
:103B00002C4001F04DF8FE214DF22D4001F048F817
:103B100003214DF22E4001F043F810214DF22F40C9
:103B200001F03EF803214DF2304001F039F8332125
:103B30004DF2314001F034F803214DF2324001F0F2
:103B40002FF86D214DF2334001F02AF800214FF497
:103B5000554001F025F833214DF2015001F020F8D5
:103B600000214DF2025001F01BF834214DF20350B8
:103B700001F016F800214DF2045001F011F83A213D
:103B80004DF2055001F00CF800214DF2065001F005
:103B900007F84A214DF2075001F002F800214DF2DA
:103BA000085000F0FDFF5C214DF2095000F0F8FFD5
:103BB00000214DF20A5000F0F3FF81214DF20B502D
:103BC00000F0EEFF00214DF20C5000F0E9FFA621BD
:103BD0004DF20D5000F0E4FF00214DF20E5000F0C8
:103BE000DFFFE5214DF20F5000F0DAFF01214DF229
:103BF000105000F0D5FF13214DF2115000F0D0FF0E
:103C000001214DF2125000F0CBFF54214DF2135020
:103C100000F0C6FF01214DF2145000F0C1FF8221D7
:103C20004DF2155000F0BCFF01214DF2165000F08E
:103C3000B7FFCA214DF2175000F0B2FF02214DF23A
:103C4000185000F0ADFF00214DF2195000F0A8FF10
:103C500002214DF21A5000F0A3FF01214DF21B503A
:103C600000F09EFF02214DF21C5000F099FF34211C
:103C70004DF21D5000F094FF02214DF21E5000F055
:103C80008FFF67214DF21F5000F08AFF02214DF295
:103C9000205000F085FF84214DF2215000F080FF7C
:103CA00002214DF2225000F07BFFA4214DF223505F
:103CB00000F076FF02214DF2245000F071FFB72191
:103CC0004DF2255000F06CFF02214DF2265000F01D
:103CD00067FFCF214DF2275000F062FF02214DF225
:103CE000285000F05DFFDE214DF2295000F058FF12
:103CF00002214DF22A5000F053FFF2214DF22B50D9
:103D000000F04EFF02214DF22C5000F049FFFE2141
:103D10004DF22D5000F044FF03214DF22E5000F0E3
:103D20003FFF10214DF22F5000F03AFF03214DF2DA
:103D3000305000F035FF33214DF2315000F030FFAC
:103D400003214DF2325000F02BFF6D214DF2335024
:103D500000F026FF00214FF4564000F021FF3321F0
:103D60004DF2016000F01CFF00214DF2026000F0F6
:103D700017FF34214DF2036000F012FF00214DF2D5
:103D8000046000F00DFF3A214DF2056000F008FFDD
:103D900000214DF2066000F003FF4A214DF207605A
:103DA00000F0FEFE00214DF2086000F0F9FE5C21FB
:103DB0004DF2096000F0F4FE00214DF20A6000F0BF
:103DC000EFFE81214DF20B6000F0EAFE00214DF282
:103DD0000C6000F0E5FEA6214DF20D6000F0E0FE63
:103DE00000214DF20E6000F0DBFEE5214DF20F6088
:103DF00000F0D6FE01214DF2106000F0D1FE13213B
:103E00004DF2116000F0CCFE01214DF2126000F085
:103E1000C7FE54214DF2136000F0C2FE01214DF2A5
:103E2000146000F0BDFE82214DF2156000F0B8FE76
:103E300001214DF2166000F0B3FECA214DF2176069
:103E400000F0AEFE02214DF2186000F0A9FE002144
:103E50004DF2196000F0A4FE02214DF21A6000F04C
:103E60009FFE01214DF21B6000F09AFE02214DF2EF
:103E70001C6000F095FE34214DF21D6000F090FEB4
:103E800002214DF21E6000F08BFE67214DF21F6093
:103E900000F086FE02214DF2206000F081FE8421B8
:103EA0004DF2216000F07CFE02214DF2226000F014
:103EB00077FEA4214DF2236000F072FE02214DF244
:103EC000246000F06DFEB7214DF2256000F068FE21
:103ED00002214DF2266000F063FECF214DF22760F3
:103EE00000F05EFE02214DF2286000F059FEDE2156
:103EF0004DF2296000F054FE02214DF22A6000F0DC
:103F00004FFEF2214DF22B6000F04AFE02214DF2ED
:103F10002C6000F045FEFE214DF22D6000F040FEC9
:103F200003214DF22E6000F03BFE10214DF22F6078
:103F300000F036FE03214DF2306000F031FE3321F7
:103F40004DF2316000F02CFE03214DF2326000F0A2
:103F500027FE6D214DF2336000F022FE55214FF413
:103F6000704000F01DFEAA214FF2010000F018FE83
:103F700052214FF2020000F013FE08214FF203001D
:103F800000F00EFE00214FF2040000F009FECC21EB
:103F90004FF4314000F004FE00214BF2011000F01C
:103FA000FFFD05214FF4364000F0FAFD70214FF47B
:103FB000374000F0F5FD70214BF2017000F0F0FD8C
:103FC00001214FF4384000F0EBFD03214BF60100D6
:103FD00000F0E6FD03214BF6020000F0E1FD0321B5
:103FE0004BF6030000F0DCFD02214FF43C4000F0F2
:103FF000D7FD00214BF6014000F0D2FD00214BF629
:10400000024000F0CDFDD0214FF4494000F0C8FD42
:1040100002214CF6011000F0C3FD50214CF60210B5
:1040200000F0BEFD50214CF6031000F0B9FD502108
:104030004CF6041000F0B4FD00214FF4545000F091
:10404000AFFD55214FF4685000F0AAFD4FF48850A1
:1040500000F090FD782001F04BFA4FF4245000F06E
:1040600089FD0120FEF7E2FE0120044908600448B2
:104070000088FEF7C1FE21B000BD0000B002414241
:104080003A00002008B5034800880090BDF8000001
:1040900008BD00008000006C10B50446204600F00A
:1040A00069FD002201E0501CC2B2FA2AFBDBFFF7D7
:1040B000E9FF10BD70B50546002400264B48807905
:1040C000012818D1082D15D2DFE805F00406080AEA
:1040D0000C0E101206250DE007250BE0042509E063
:1040E000052507E0012505E0002503E0032501E0A3
:1040F000022500BF00BF082D1CD2DFE805F0040632
:10410000090C0F12151800BF14E044F0800411E0F0
:1041100044F040040EE044F0C0040BE044F02004FE
:1041200008E044F0600405E044F0A00402E044F03C
:10413000E00400BF00BF4FF4585644F0200421466D
:10414000304600F02DFD2949488900F013FD00207C
:1041500000F004FD25494989491C88B200F00AFD98
:10416000002000F0FBFC21494989891C88B200F03D
:1041700001FD1E490988491EC1F30F2000F0EEFC25
:104180001A494989C91C88B200F0F4FC174909781A
:10419000491EC8B200F0E2FC1449888900F0EAFC2C
:1041A000002000F0DBFC11498989491C88B200F02D
:1041B000E1FC002000F0D2FC0C498989891C88B2FE
:1041C00000F0D8FC09494988491EC1F30F2000F0CE
:1041D000C5FC06498989C91C88B200F0CBFC03499B
:1041E0008978491EC8B200F0B9FC70BDDC0F002010
:1041F00010B502460C461049488900F0BBFC10126D
:1042000000F0ACFC0C494989491C88B200F0B2FCB2
:10421000D0B200F0A3FC0849888900F0ABFC201262
:1042200000F09CFC04498989491C88B200F0A2FC7A
:10423000E0B200F093FC10BDDC0F00202DE9FC4142
:1042400006464FF4EE774FF08C08C82070433321B8
:1042500090FBF1F084B20C208DF80000642C17DA8A
:104260000A2094FBF0F0C5B28DF801500A208DF8B9
:10427000020094FBF0F100FB1140C5B28DF8035031
:104280000B208DF804000C208DF805008DF8060039
:10429000B4F57A7F22DA632C20DD642094FBF0F001
:1042A000C5B28DF80150642094FBF0F100FB114081
:1042B0000A2190FBF1F0C5B28DF802500A208DF86A
:1042C000030094FBF0F100FB1140C5B28DF80450DF
:1042D0000B208DF805000C208DF80600B4F57A7FD0
:1042E00014D14FF47A7094FBF0F0C5B28DF8015000
:1042F00000208DF802008DF803000A208DF80400DC
:1043000000208DF805000B208DF8060007236A4673
:104310004146384600F0F8FABDE8FC8178B57824CB
:104320004FF49775054800680090022633466A46A8
:104330002946204600F05EFA78BD0000C8800008DB
:10434000F8B504464FF4FA754FF497760127012C1F
:1043500003D10C208DF8000002E00D208DF8000044
:104360003B466A463146284600F062FBF8BD000035
:1043700078B578244FF4B27505480068009002269D
:1043800033466A462946204600F034FA78BD0000DC
:10439000CC800008FCB504464FF4EE754FF4B276BD
:1043A000C8206043332190FBF1F087B20C208DF8D8
:1043B0000000012C03D102208DF8010002E0012051
:1043C0008DF8010002236A463146284600F09CFA27
:1043D000FCBD000078B578248C2505A0006800900D
:1043E000042633466A462946204600F003FA78BD83
:1043F0000001020378B57824C22505A0006800906A
:10440000042633466A462946204600F0F3F978BD73
:10441000040506032DE9FC4104464FF4EE76C2275D
:10442000C8206043332190FBF1F01FFA80F80C2084
:104430008DF80000642C11DA0A2094FBF0F0C5B26C
:104440008DF801500A2094FBF0F100FB1140C5B239
:104450008DF802500C208DF8030018E0642094FBC6
:10446000F0F0C5B28DF80150642094FBF0F100FB30
:1044700011400A2190FBF1F0C5B28DF802500A20DC
:1044800094FBF0F100FB1140C5B28DF803500423FA
:104490006A463946304600F037FABDE8FC81000034
:1044A00078B57824F8250548006800900226334640
:1044B0006A462946204600F09DF978BDC480000870
:1044C000F8B504464FF4FA75F8260127012C03D1FC
:1044D0000C208DF8000002E00D208DF800003B4616
:1044E0006A463146284600F0A3FAF8BD2DE9F04FA0
:1044F000ADF5267D804689463CA103C9A591A490CF
:104500000025CDF80480CA46002406E0394800881A
:1045100002A921F81400601C84B2B4F5A07FF5DB79
:10452000002004465CE000263BE0E100A4A8805D9A
:1045300001EB40201FFA80FB0020A3902CE02E48C6
:1045400010F80B0000900020A2901AE0009800F0F4
:10455000800028B12948008802A921F8150004E04C
:104560002448008802A921F815004FF6FF71009831
:1045700001EA40000090681C85B2A298401C80B2FD
:10458000A290A2980828E1DB0BF101001FFA80FB42
:10459000A398401C80B2A390A3980828CFDB701C7E
:1045A00086B2052EC1DB0AEB040081B20198FFF749
:1045B0001FFE0AEB040081B20198FFF719FE00F01C
:1045C000E5FA002706E002A830F817000C49088039
:1045D000781C87B2AF42F6DB0025601C80B204462F
:1045E000402CA0DB0DF5267DBDE8F08F0001020315
:1045F000040000003A0000200C5900083800002098
:104600008000006C2DE9F04FADF5267D82468B468B
:10461000414903C9A591A4900025CDF808A0CDF883
:1046200004B0002406E03D48008803A921F81400E6
:10463000601C84B2B4F5A07FF5DB0020044664E082
:1046400000263EE0C4EBC400A4A9895D01EB011281
:1046500002EB411100EBC1001FFA80F900272CE0AA
:104660002F4810F8090000900020A3901CE0BDF82E
:10467000000000F0800028B12A48008803A921F832
:10468000150004E02548008803A921F81500BDF8AD
:1046900000004FF6FF7101EA40000090681C85B2EF
:1046A000A398401C80B2A390A3980828DFDB09F1EF
:1046B00001001FFA80F9781C87B2072FD0DB701C2D
:1046C00086B2042EBEDB4FF4A0750198204481B25F
:1046D0000298FFF78DFD0198204481B20298FFF700
:1046E00087FD00F053FA4FF0000808E003A830F807
:1046F00018000D49088008F101001FFA80F8A8454C
:10470000F4DB0025601C80B20446382C98DB0DF5E4
:10471000267DBDE8F08F0000BC8000083A00002034
:104720000C630008380000208000006C78B5782405
:104730004FF4CD75054800680090022633466A465E
:104740002946204600F056F878BD0000D0800008C9
:104750002DE9FC4104464FF4EE764FF4CD77C820A6
:104760006043332190FBF1F01FFA80F80C208DF8A4
:104770000000642C11DA84B10A2094FBF0F0C5B279
:104780008DF801500A2094FBF0F100FB1140C5B2F6
:104790008DF802500C208DF80300642C18DB642087
:1047A00094FBF0F0C5B28DF80150642094FBF0F159
:1047B00000FB11400A2190FBF1F0C5B28DF80250C8
:1047C0000A2094FBF0F100FB1140C5B28DF80350B4
:1047D0003CB900208DF801000C208DF802008DF806
:1047E000030004236A463946304600F08DF8BDE8E0
:1047F000FC8100002DE9FF4FADF5227D0E4693466A
:104800000025002406E03C48008801A921F8140096
:10481000601C84B2B4F5A07FF5DB002465E00027BE
:1048200041E004EB440040001BF8071001EBC1011C
:1048300000EB41101FFA80FA4FF000082EE02F48DD
:1048400010F80A0000900020A1901CE0BDF80000C4
:1048500000F0800028B12A48008801A921F815003D
:1048600004E02548008801A921F81500BDF80000E2
:104870004FF6FF7101EA40000090681C85B2A198D4
:10488000401C80B2A190A1980828DFDB0AF101004A
:104890001FFA80FA08F101001FFA80F8B8F1060F3C
:1048A000CDDB781C87B2A5988742BADB4FF4A075A0
:1048B000301981B2A298FFF79BFC301981B2A298FF
:1048C000FFF796FC00F062F94FF0000908E001A83C
:1048D00030F819000B49088009F101001FFA80F92E
:1048E000A945F4DB0025601C84B2302C97DB0DF564
:1048F000267DBDE8F08F00003A0000202C690008FA
:10490000380000208000006C2DE9FF4FADF53B7DA5
:1049100006460F460025002406E04148008801A90C
:1049200021F81400601C84B2B4F5B97FF5DB0024D3
:1049300070E04FF0000847E004EB4401BD9810F828
:10494000080000EBC00001EB00101FFA80FB002004
:10495000BA9032E0334810F80B0000904FF0000A94
:1049600020E0BDF8000000F0800038B12E4801883A
:1049700001AA05F1320022F8101006E0284801884B
:1049800001AA05F1320022F81010BDF800004FF620
:10499000FF7101EA40000090681C85B20AF1010035
:1049A0001FFA80FABAF1080FDBDB0BF101001FFAE6
:1049B00080FBBA98401C80B2BA90BA980328C9DB31
:1049C00008F101001FFA80F8BE988045B4DB4FF46F
:1049D000B9753A1991B2A6F1320290B2FFF708FC0C
:1049E0003A1991B2A6F1320290B2FFF701FC00F041
:1049F000CDF84FF0000908E001A830F819000B4984
:104A0000088009F101001FFA80F9A945F4DB0025AF
:104A1000601C84B2302C8CDB0DF53F7DBDE8F08F3F
:104A20003A000020EC780008380000208000006C7C
:104A30002DE9FF4FADF5547D06460F4600250024B5
:104A400006E04248008801A921F81400601C84B2E5
:104A5000B4F5D27FF5DB002471E04FF0000848E0A8
:104A600004EB44004100D69810F8080000EBC000A9
:104A700001EB40101FFA80FB4FF0000932E0344890
:104A800010F80B0000900020D39020E0BDF800004B
:104A900000F0800038B12F48018801AA05F16400B8
:104AA00022F8101006E02948018801AA05F16400E7
:104AB00022F81010BDF800004FF6FF7101EA400027
:104AC0000090681C85B2D398401C80B2D390D398D4
:104AD0000828DBDB0BF101001FFA80FB09F1010064
:104AE0001FFA80F9B9F1060FC9DB08F101001FFABE
:104AF00080F8D7988045B3DB4FF4D2753A1991B25C
:104B0000A6F1640290B2FFF773FB3A1991B2A6F1D5
:104B1000640290B2FFF76CFB00F038F84FF0000A27
:104B200008E001A830F81A000B4908800AF10100DA
:104B30001FFA80FAAA45F4DB0025601C84B2302CF1
:104B40008BDB0DF5587DBDE8F08F00003A000020AA
:104B50002C690008380000208000006C01B5BDF809
:104B600000000090BDF800000149088008BD000069
:104B70008000006C01B5BDF800000090BDF8000099
:104B80000149088008BD00007E00006C02480089D1
:104B90000249088070470000DC0F00207E00006C96
:104BA000034A10804FF0D842A2F8801070470000EE
:104BB0007E00006C10B5044601210846FDF794FC08
:104BC00000220121880700F0E8F921464FF08040DB
:104BD00000F0EFF92021480600F0E2F901218807F2
:104BE00000F063F810BD000010B50121164800F078
:104BF00077F8012822D115480078401C1349087025
:104C00001348007801280FD108460078022807DBF6
:104C100008460078092803DC01200E49086006E0F8
:104C200000200C49086002E000200A49086007489B
:104C300000780B2802D101200449087001210248A4
:104C400000F030F810BD00000004004036000020E5
:104C5000100000208482404210B50446012120202B
:104C6000FDF742FC00220121074800F096F9214699
:104C7000054800F09EF92021034800F091F9012138
:104C8000014800F012F810BD0014004021B1028864
:104C900042F08002028004E002884FF67F731A40DF
:104CA00002807047CA430282704721B1028842F0F5
:104CB0000102028004E002884FF6FE731A4002806F
:104CC000704731B1B0F8442042F40042A0F84420CB
:104CD00005E0B0F84420C2F30E02A0F8442070476B
:104CE00030B50246002000230024158A05EA01039E
:104CF000958905EA010413B10CB1012000E0002000
:104D000030BD000070B5002400220023058C4FF652
:104D1000FE7635400584028C8388048B4FF68F75B0
:104D20002C40B51E2C400D882C43751E2A408D89C1
:104D30002A434D882A43104DA84202D00F4DA84265
:104D400013D14FF6F7752A40CD892A434FF6FB75EC
:104D50002A408D882A434FF6FF652B404FF6FF55BA
:104D60002B400D8A2B434D8A2B43838004838D680F
:104D70004563028470BD0000000001400004014052
:104D80000A460021018B4FF6F77319401143018346
:104D90007047000070B5002400220023058C4FF6F8
:104DA000EF7635400584028C8388048B48F6FF75C6
:104DB0002C404FF6FF452C400D884FF6FF7606EA53
:104DC00005252C434FF6DF752A408D8906EA051527
:104DD0002A434D8806EA05152A43154DA84202D0FC
:104DE000144DA8421DD14FF67F752A40CD894FF64C
:104DF000FF7606EA05152A434FF6BF752A408D88CF
:104E000006EA05152A434FF6FF352B404FF2FF7592
:104E10002B400D8A06EA85052B434D8A06EA850557
:104E20002B43838004838D688563028470BD0000FA
:104E300000000140000401400A460021018B4FF2AE
:104E4000FF7319404FF6FF7303EA022319430183EE
:104E50007047000070B5002400220023058C4FF637
:104E6000FF6635400584028C8388848B4FF68F75EE
:104E70002C404FF6FC752C400D882C434FF6FF5507
:104E80002A408D894FF6FF7606EA05252A434D888C
:104E900006EA05252A43154DA84202D0144DA84222
:104EA0001DD14FF2FF752A40CD894FF6FF7606EAF5
:104EB00005252A434FF6FF352A408D8806EA052549
:104EC0002A434EF6FF752B404DF6FF752B400D8A99
:104ED00006EA05152B434D8A06EA05152B43838008
:104EE00084838D68C563028470BD000000000140AA
:104EF000000401400A460021818B4FF6F7731940E8
:104F0000114381837047000070B500220023002404
:104F1000058C4EF6FF7635400584038C8488828BA1
:104F200048F6FF752A404FF6FF452A400D884FF698
:104F3000FF7606EA05252A434DF6FF752B408D893D
:104F400006EA05352B434D8806EA05352B430A4D05
:104F5000A84202D0094DA84208D14BF6FF752C405B
:104F60000D8A4FF6FF7606EA85152C4384808283EE
:104F70008D680564038470BD000001400004014099
:104F80000A460021818B4FF2FF7319404FF6FF73E1
:104F900003EA0223194381837047018582827047A7
:104FA00082884FF68F731A40828082880A438280FB
:104FB0007047C16270470164704700000022028898
:104FC000184B98420ED0184B98420BD0B0F1804F3E
:104FD00008D0164B984205D0154B984202D0154B7D
:104FE000984204D14FF68F731A404B881A43124BE4
:104FF000984207D0114B984204D04FF6FF431A4015
:105000000B891A4302804B68C3620B880385054BEA
:10501000984202D0044B984201D18B7A0386012337
:1050200083827047000001400004014000040040FA
:1050300000080040000C0040001000400014004038
:1050400000BFFEE72DE9FC4706460D46144699468B
:10505000304600F0F5F807460121FDF725FA1F4814
:1050600084420BD01E48844208D01E48844205D09A
:105070001D48844202D01D48844207D1204600F0DA
:1050800021F907460121FDF73FFA06E0204600F02E
:1050900019F907460121FDF727FA009502208DF83E
:1050A000040003208DF8050000208DF80600012083
:1050B0008DF8070069463046FBF789FF204600F06F
:1050C00017F80746284600F071F880463A464146F0
:1050D0003046FBF7C4FFBDE8FC870000000001403C
:1050E00000040140004001400044014000480140EC
:1050F00001460020224A914201D101203FE0214A8D
:10510000914201D103203AE01F4A914201D103208C
:1051100035E01E4A914201D1032030E01C4A914201
:1051200001D103202BE0B1F1804F01D1012026E015
:10513000184A914201D1022021E0174A914201D13F
:1051400002201CE0154A914201D1022017E00D4ACD
:10515000914201D1032012E00B4A914201D1032078
:105160000DE00F4A914201D1092008E00D4A914219
:1051700001D1092003E00C4A914200D10920704777
:105180000000014000040140004001400044014093
:10519000004801400004004000080040000C0040AE
:1051A00000180040001C0040002000400146002084
:1051B000012900D142E0022901D101203EE0042969
:1051C00001D102203AE0082901D1032036E010295C
:1051D00001D1042032E0202901D105202EE0402910
:1051E00001D106202AE0802901D1072026E0B1F56F
:1051F000807F01D1082021E0B1F5007F01D1092095
:105200001CE0B1F5806F01D10A2017E0B1F5006F05
:1052100001D10B2012E0B1F5805F01D10C200DE02F
:10522000B1F5005F01D10D2008E0B1F5804F01D14B
:105230000E2003E0B1F5004F00D10F2070470000B1
:1052400001460020164A914201D1012026E0154A6C
:10525000914201D1022021E0134A914201D1042060
:105260001CE0124A914201D1082017E0104A9142F5
:1052700001D1102012E00F4A914201D120200DE00F
:105280000D4A914201D1402008E00C4A914201D1DF
:10529000802003E00A4A914200D18815704700003F
:1052A000000002400004024000080240000C0240DE
:1052B000001002400014024000180240001C02408E
:1052C0000020024001460020244A914201D10120E1
:1052D00042E0234A914201D102203DE0214A91421D
:1052E00002D14FF4803037E01F4A914202D14FF48F
:1052F000003031E01D4A914202D14FF480202BE072
:10530000B1F1804F01D1012026E0194A914201D12B
:10531000022021E0174A914201D104201CE0164AE4
:10532000914201D1082017E0144A914201D1102086
:1053300012E0134A914201D120200DE0114A91421E
:1053400001D1402008E0104A914201D1802003E0C1
:105350000E4A914200D188157047000000000140BC
:105360000004014000400140004401400048014069
:105370000004004000080040000C00400010004005
:105380000014004000180040001C004000200040B5
:105390002DE9F04389B00746884615461C46DDE9ED
:1053A000106923462A4641463846FFF74BFE0796CA
:1053B0000020ADF81800ADF82000ADF81A008DF807
:1053C000220006A92846FFF7F9FD6020ADF8040089
:1053D0000120ADF80600701C400803900020ADF8D5
:1053E0001000ADF80800ADF81200ADF81400ADF8EB
:1053F0001600012C08D101A92846FFF783FC0821DB
:105400002846FFF7BDFC1FE0022C08D101A9284661
:10541000FFF7C0FC08212846FFF70EFD14E0032C1F
:1054200008D101A92846FFF715FD08212846FFF7F6
:1054300061FD09E0042C07D101A92846FFF764FDAE
:1054400008212846FFF79CFD01212846FFF71EFC96
:1054500001212846FFF729FC0648854202D006486C
:10546000854203D101212846FFF72BFC09B0BDE896
:10547000F0830000000001400004014010B5044624
:105480006FF00400FDF76EFCE11704EB5171C1F3FE
:10549000C701074A11701046007800EB4001C1EBCC
:1054A000C0104FF6FF7101EAC0000249088010BD2C
:1054B000320000203400002070B504464FF407701D
:1054C00094FBF0F0C6B24FF4077094FBF0F100FBD0
:1054D000114085B205E04FF4077000F02FF8701E00
:1054E000C6B2002EF7D115B1284600F027F870BDDE
:1054F0000146114A12784A434FF0E0235A610022D4
:105500009A611A46126942F001021A6100BF4FF017
:10551000E022106900F001021AB100F48032002A82
:10552000F5D04FF0E022126922F001024FF0E023A3
:105530001A6100229A617047320000200146114A28
:1055400012884A434FF0E0235A6100229A611A46BA
:10555000126942F001021A6100BF4FF0E0221069A7
:1055600000F001021AB100F48032002AF5D04FF0A9
:10557000E022126922F001024FF0E0231A610022BA
:105580009A61704734000020A820FFF777FF4FF49E
:10559000A060FCF74FFFFAF7C5FFFBF787FDFCF7AC
:1055A00007FA6420FFF788FFFDF76EFC23215D20DA
:1055B000FEF79CFF27214FF4EF70FFF723F8FDF76C
:1055C00059F9FEF707FFFEF705FFFEF713FFFEF799
:1055D00067FFFEF7A3FEFEF7CBFEFFF7A7F8FDF788
:1055E000F5F90FE0FAF77EFEFCF730FFFDF768F9FA
:1055F000FDF7B4F9FBF798FFFBF7D2FFFCF700F8D3
:10560000FCF792FFEEE7000030B504460A46B2F51B
:10561000FA7F01DD4FF4FA72C2EB02334FF4FA75F0
:1056200093FBF5F100200AE000FB01F340F2F315D3
:10563000B3FBF5F30D4D25F81030431C98B2B0F5CF
:10564000FA7FF1DB4FF4FA700CE0A0F5FA734B43EC
:1056500040F2F315B3FBF5F3CB1A044D25F81030E7
:10566000431C98B2B0F57A7FEFDB30BD3C000020E0
:1056700030B504460A46B2F5FA7F01DD4FF4FA72FE
:10568000C2EB02334FF4FA7593FBF5F100200AE008
:1056900000FB01F340F2F315B3FBF5F30D4D25F8D4
:1056A0001030431C98B2B0F5FA7FF1DB4FF4FA707A
:1056B0000CE0A0F5FA734B4340F2F315B3FBF5F39E
:1056C000CB1A044D25F81030431C98B2B0F57A7F00
:1056D000EFDB30BD0C0800204FF04070E1EE100A07
:1056E00070470000000000000000002F00000000D4
:1056F0000700070000147F147F1400242A7F2A1259
:105700000062640813230036495522500000050347
:10571000000000001C224100000041221C00001477
:10572000083E08140008083E0808000000A06000B9
:105730000008080808080000606000000020100849
:105740000402003E5149453E0000427F40000042B5
:1057500061514946002141454B31001814127F1018
:10576000002745454539003C4A4949300001710947
:10577000050300364949493600064949291E0000FB
:1057800036360000000056360000000814224100A2
:1057900000141414141400004122140800020151D2
:1057A000090600324959513E007C1211127C007FDB
:1057B00049494936003E41414122007F4141221C76
:1057C000007F49494941007F09090901003E4149DB
:1057D000497A007F0808087F0000417F41000020CF
:1057E00040413F01007F08142241007F404040407B
:1057F000007F020C027F007F0408107F003E4141C1
:10580000413E007F09090906003E4151215E007FAB
:10581000091929460046494949310001017F010122
:10582000003F4040403F001F2040201F003F4038C5
:10583000403F006314081463000708700807006104
:105840005149454300007F41410000552A552A55E2
:10585000000041417F00000402010204004040407A
:105860004040000001020400002054545478007F9E
:105870004844443800384444442000384444487F75
:1058800000385454541800087E0901020018A4A4DA
:10589000A47C007F080404780000447D40000040A0
:1058A00080847D00007F102844000000417F40007C
:1058B000007C04180478007C080404780038444410
:1058C000443800FC242424180018242418FC007CEC
:1058D0000804040800485454542000043F44402065
:1058E000003C4040207C001C2040201C003C4030FC
:1058F000403C004428102844001CA0A0A07C004488
:1059000064544C448080808080800000000000004F
:105910000000000000000000000000000000001C6B
:10592000000000000000001E0007800000E0001FD3
:105930008007E00000F8001F8007F000007C001FD7
:105940000007F000007F003F0007E000003F803EBE
:10595000000FC000001F8E3C1C0FC000001FCFFCBA
:105960003E0FC000000FCFFFFF0F8000000FCFFFE2
:10597000FF1F8000000F8F803F1F000000078F80F7
:105980003E1F00000000EF803E1F00000000EF807F
:105990003E3E00003800EF803E3E00E03E00EFFF5C
:1059A000FE3C01F01F81EFFFFE7C03F80FC1EFFF0B
:1059B000FE7FFFFC0FE1EF803EFFFFFC07F1CF8091
:1059C0003EF80F8003F1CF803EF80F8003F3CF80C5
:1059D0003FF80F8003F3CFFFFFFC1F8001F3CFFFE1
:1059E000FFFC1F8001E38FFFFFFC1F0000078F9F5C
:1059F0003FBC1F0000078F9FBF3C1F000007800FA8
:105A0000C01C1F000007800FC39E3F00000F00074F
:105A100087DE3F00000FFFFFFFFE3E00000FFFFF8D
:105A2000FFFE3E00001FFFFFFFFF7E00001F01F092
:105A3000001F7E00001F01F01C0F7C00003E01F0E3
:105A40003E0FFC00003E01FFFF0FFC00007E03FF45
:105A5000FF0FF8001FFE03FFFF07F8001FFE03E023
:105A60007E07F80007FC03E07E07F00001FC03E07E
:105A70007E03F00000FC07E07C07F000007C07C01C
:105A80007C0FF800007C07C07C0FF80000FC0FC002
:105A90007C1FFC0000FC0F807C3FFE0000FC1FF020
:105AA000FC7F7F0000FC1F7FFCFE3F8000FC3F3F2F
:105AB000F9FC1FE000FC3E0FFBF80FF000FC7C0738
:105AC000FFE00FFC00FCF803FFC007FC00FDF00343
:105AD000BF0003FC007FE000FE0001E00007C00300
