:020000040800F2
:10000000201E002029020008152400081D150008E4
:100010001124000885060008C552000800000000F1
:10002000000000000000000000000000252600087D
:100030003D0A000800000000A52400082D2E00083D
:10004000430200084302000843020008430200087C
:10005000430200084302000843020008E90A0008BE
:10006000910B0008350C0008A50C0008430200089D
:10007000430200084302000843020008430200084C
:10008000430200084302000843020008430200083C
:100090004302000843020008430200084D0D000817
:1000A000430200084302000843020008430200081C
:1000B00043020008A94C000843020008430200085C
:1000C00043020008430200084302000843020008FC
:1000D00043020008430200084302000843020008EC
:1000E000410A0008430200084302000843020008D6
:1000F00043020008430200084302000843020008CC
:1001000043020008430200084302000843020008BB
:1001100043020008430200084302000843020008AB
:10012000430200084302000843020008430200089B
:10013000430200084302000843020008430200088B
:10014000430200084302000843020008430200087B
:10015000430200084302000843020008430200086B
:10016000430200084302000843020008430200085B
:10017000430200084302000843020008430200084B
:10018000430200084302000800F002F800F03CF8C7
:100190000AA090E8000C82448344AAF10107DA45E2
:1001A00001D100F031F8AFF2090EBAE80F0013F0F8
:1001B000010F18BFFB1A43F0010318476C820200BD
:1001C0008C820200103A24BF78C878C1FAD852074E
:1001D00024BF30C830C144BF04680C6070470000C1
:1001E0000023002400250026103A28BF78C1FBD840
:1001F000520728BF30C148BF0B6070471FB505F0DC
:10020000D9FB1FBD10B510BD00F031F81146FFF746
:10021000F5FF05F0FBFA00F04FF803B4FFF7F2FF2B
:1002200003BC00F057F80000094880470948004720
:10023000FEE7FEE7FEE7FEE7FEE7FEE7FEE7FEE796
:10024000FEE7FEE704480549054A064B70470000F3
:10025000312E00088901000820180020201E0020EF
:10026000201A0020201A00207047704770477546FA
:1002700000F02CF8AE4605006946534620F0070012
:10028000854618B020B5FFF7DDFFBDE820404FF0F0
:1002900000064FF000074FF000084FF0000B21F070
:1002A0000701AC46ACE8C009ACE8C009ACE8C0093D
:1002B000ACE8C0098D46704710B50446AFF3008026
:1002C0002046BDE81040FFF7A8BF00000048704777
:1002D000BC17002001491820ABBEFEE72600020033
:1002E0007047000010B5094800780949097888422C
:1002F0000BD007480078054908700548007802F0DF
:10030000B3F90348007803F0E7FF10BD11000020A7
:10031000000000201CB50121202002F0F3F830205D
:10032000009001208DF8040000208DF806000320C5
:100330008DF8050001208DF807006946044800F09B
:1003400042FE0120034908600349C1F894021CBD24
:100350000014024090824242008042420021124A30
:1003600011601249096821F44061104A1160114678
:10037000096841F48061116000210D4AC2F89412AD
:10038000002001E0411CC8B21428FBDB0121064A11
:100390001160002001E0411CC8B21428FBDB0021E1
:1003A000014A1160704700009082424200140240EE
:1003B000008042420021104A11601049096821F46E
:1003C00040610E4A11601146096841F48061116074
:1003D000002001E0411CC8B21428FBDB0121064AC1
:1003E0001160002001E0411CC8B21428FBDB002191
:1003F000014A11607047000090824242001402409E
:100400001249096821F44061104A116011460968D7
:1004100041F48061116001210D4A11600D4AC2F85A
:100420009012002001E0411CC8B23228FBDB002101
:10043000074A1160002001E0411CC8B23228FBDBF2
:100440000021034A121F116070470000001402408F
:1004500094824242008042421249096821F440617C
:10046000104A11601146096841F480611160002151
:100470000D4A11600D4AC2F89012002001E0411CA3
:10048000C8B23228FBDB0121074A121F1160074A5C
:10049000C2F89412002001E0411CC8B23228FBDBF4
:1004A00070470000001402409482424200804242A1
:1004B00010B5002400231748006820F44060154957
:1004C000086008460068086001201349086000BF02
:1004D00001E0581CC3B2142BFBDB01200E49091F9D
:1004E0000860002301E0581CC3B2142BFBDB07E0BB
:1004F000601CC4B2FA2C03DDFFF7AEFF012010BD73
:100500000548803800680028F2D10349091F0860B7
:1005100000BFF4E7001402409482424210B5FFF796
:10052000F9FE10BD30B50446FFF76AFFA02000F0C9
:100530004FF8FFF7BDFF204600F04AF8FFF7B8FF7D
:10054000FFF75EFFA12000F043F8FFF7B1FF0020A6
:1005500000F006F80546FFF77FFF284630BD000093
:1005600070B505461748006820F4406015490860DA
:1005700008460068086000261AE00020124908605A
:10058000002301E0581CC3B2142BFBDB01200E49F1
:1005900008606006040E0D48D0F814022044C4B26E
:1005A000002301E0581CC3B2142BFBDB701CC6B245
:1005B000082EE2DB15B1FFF7D1FE01E0FFF7FAFEEE
:1005C000204670BD001402409082424200804242A8
:1005D00010B50146194B1B6823F44063174C236088
:1005E00023461B6843F4806323600023144C23607C
:1005F00000221FE0CB09124C241D23604B06190E6C
:10060000002001E0431CD8B21428FBDB01230C4C72
:100610002360002001E0431CD8B21428FBDB002338
:10062000074C2360002001E0431CD8B21428FBDBF8
:10063000531CDAB2082ADDDB10BD000000140240B2
:100640009082424270B506460C46FFF7D9FEA020C4
:10065000FFF7BEFFFFF72CFF3046FFF7B9FFFFF7AC
:1006600027FF2046FFF7B4FFFFF722FFFFF7F4FE56
:10067000002500E06D1C02488542FBD370BD0000E0
:1006800040420F0000BFFEE739B1084A126801235B
:1006900083401A43054B1A6006E0044A126801239E
:1006A00083409A43014B1A60704700000074004079
:1006B00041B1094A12684FF4805383401A43064BF4
:1006C0001A6007E0044A12684FF4805383409A434B
:1006D000014B1A60704700000074004000B593B0F1
:1006E0000121480501F00EFF0121480701F02AFF12
:1006F00024200F9000201090022012900FA90020BB
:1007000000F09EF81A4800F0C1F84FF060600090C9
:1007100018480190184802904FF47A7004904FF4F2
:1007200000600790089040200390002005904FF44F
:10073000806006908010099040020A9000200B9083
:1007400001200C9000200D900E906946084800F0A2
:1007500049F90121064800F08DF801210020FFF73A
:1007600093FF01210020FFF7A3FF13B000BD00009D
:1007700088600240087400403C00002000B593B03F
:100780000121480501F0BEFE0121480701F0DAFE13
:1007900014200F9000201090022012900FA910201A
:1007A00000F04EF8224800F071F84FF060600090C1
:1007B00020480190204802904FF47A7004904FF442
:1007C00000600790089040200390002005904FF4AF
:1007D000806006908010099040020A9000200B90E3
:1007E00001200C9000200D900E906946104800F0FA
:1007F000F9F81248007801280CD101210C4800F0CA
:1008000039F801211020FFF73FFF01211020FFF7E9
:100810004FFF0BE00021064800F02CF800211020CB
:10082000FFF732FF00211020FFF742FF13B000BD99
:10083000A060024014740040DC0F00202200002061
:1008400030B5002200230A4C226840F6FE74844032
:10085000A243D1E900452C438D682C43CD6844EA7E
:10086000050303FA00F42243014C226030BD00006E
:100870000074004021B1026842F00102026003E00E
:10088000026822F00102026070470000016821F056
:10089000010101600021016041608160C16001616E
:1008A000212141614A49884204D13D21484A103AF8
:1008B00091608CE046491831884205D14FF474614B
:1008C000434A103A916082E041493031884205D173
:1008D0004FF474113E4A103A916078E03C49483137
:1008E000884205D14FF07461394A103A91606EE048
:1008F00037496031884204D13649354A103AD160CF
:1009000065E033497831884204D13349304A103A9E
:10091000D1605CE02E499031884204D12F492C4AA5
:10092000103AD16053E02A49A831884205D14FF0EE
:100930003D51274A103AD16049E02949884204D103
:100940003D21274A083A116041E025491831884283
:1009500005D14FF47461224A083A116037E020490A
:100960003031884205D14FF474111D4A083A1160A4
:100970002DE01B494831884205D14FF07461184A77
:10098000083A116023E016496031884204D11149C8
:10099000134A121F11601AE011497831884204D1BC
:1009A0000D490F4A121F116011E00D499031884224
:1009B00004D10A490A4A121F116008E00849A83107
:1009C000884204D14FF03D51054A121F1160704713
:1009D000106002403D000020400F002000003D203C
:1009E0001064024010B500220268134B1A40CC6814
:1009F0000B6823434C6923438C692343CC6923430D
:100A00000C6A23434C6A23438C6A23434C6B234375
:100A10008C6B23431A430260426922F00702D1E93A
:100A20000B3423431A4342610B6943604B68836074
:100A30008B68C36010BD00003F801CF07047000051
:100A400070B5002525480068012842D1C00200F099
:100A5000D7F900283DD02148001D006801280FD19A
:100A60001F480088B0F5FA7F04DB4FF4FA701C4988
:100A7000088012E01A480088401C194908800CE0E0
:100A800017480088012803DC01201549088004E08C
:100A900013480088401E1249088011480488E01756
:100AA00004EB1060C0F307210520FFF7CBFD0C48D5
:100AB0000488E01704EB10600012A4EB0020C1B220
:100AC0000620FFF7BFFD064801880648008801F0B0
:100AD0002DFA4FF4006000F08DF970BD2C024042F9
:100AE000040000200600002070B50025244800689E
:100AF000012841D1022000F083F900283CD0214890
:100B0000006801280FD120480088B0F5FA7F04DB87
:100B10004FF4FA701C49088012E01B4800880A3024
:100B2000194908800CE018480088002803DC0020E0
:100B30001549088004E0144800880A3812490880E2
:100B400011480488E01704EB1060C0F3072103206C
:100B5000FFF778FD0C480488E01704EB10600012E2
:100B6000A4EB0020C1B20420FFF76CFD0748018808
:100B70000548008801F0DAF9022000F03BF970BD69
:100B8000048242421002424206000020040000207B
:100B900070B5002524480068012841D1042000F0E8
:100BA0002FF900283CD02148006801280DD12048A9
:100BB0000088C82803DBC8201D49088012E01C48B3
:100BC00000880A301A4908800CE019480088282853
:100BD00003DC28201649088004E0154800880A38FC
:100BE0001349088012480488E01704EB1060C0F332
:100BF00007210120FFF726FD0D480488E01704EBCC
:100C000010600012A4EB0020C1B20220FFF71AFD11
:100C10000748008801F09EF80548008803F078FE38
:100C2000042000F0E7F870BD088242420C02424204
:100C30000200002010B5002417480068012827D1C1
:100C40001648006801280DD115480078FF2803DBFD
:100C5000FF201349087012E011480078401C104929
:100C600008700CE00E480078002803DC00200C49D6
:100C7000087004E00A480078401E094908700848D6
:100C800001780020FFF7DEFC0548007800F056FFF1
:100C9000082000F0AFF810BD0C8242420802424228
:100CA0000000002070B5002525480068012842D1C9
:100CB000102000F0A5F800283DD02148001D006854
:100CC00001280FD11F480088B0F5FA7F04DB4FF4EC
:100CD000FA701C49088012E01A480088401C194923
:100CE00008800CE0174800880A2803DC0A20154910
:100CF000088004E013480088401E1249088011480B
:100D00000488E01704EB1060C0F307210920FFF707
:100D100099FC0C480488E01704EB10600012A4EB67
:100D20000020C1B20A20FFF78DFC06480188064862
:100D3000008801F0DDF9102000F05CF870BD0000C3
:100D400010024342080000200A00002070B5002570
:100D500025480068012842D1000200F051F800281F
:100D60003DD02148001D006801280FD11F48008890
:100D7000B0F5FA7F04DB4FF4FA701C49088012E0EA
:100D80001A4800880A30194908800CE01748008882
:100D9000002803DC00201549088004E0134800887F
:100DA0000A381249088011480488E01704EB1060E3
:100DB000C0F307210720FFF745FC0C480488E01723
:100DC00004EB10600012A4EB0020C1B20820FFF772
:100DD00039FC074801880548008801F089F94FF47B
:100DE000807000F007F870BD200241420A00002028
:100DF000080000200149086070470000143C0140D1
:100E000001460020034A12680A400AB1012000E0AE
:100E100000207047143C0140002123498279002AB8
:100E20003AD00A46126803689A430B461A600A1DB4
:100E3000126803689A430B1D1A60027911440A680C
:100E400003681A430A60184A0832126803689A4312
:100E5000154B08331A601A1D126803689A43124B27
:100E60000C331A604279102A0ED11A1F12680368D7
:100E70001A430D4B08331A601A1D126803681A438F
:100E8000094B0C331A600DE00749427911440A6896
:100E900003681A430A6005E0027911440A6803688E
:100EA0009A430A6070470000003C014051B1820043
:100EB000A2F1C042126842F001038200A2F1C042D6
:100EC000136009E08200A2F1C0421268034B1A408D
:100ED0008300A3F1C0431A6070470000FEFF0F00BB
:100EE000D0E901121143C2681143026911434269FA
:100EF000114382691143C2691143026A1143426A74
:100F00001143826A1143C26A1143026B11430268A2
:100F10009200A2F1C0421160816808290BD10168DA
:100F20008900A1F1C041096841F0400201688900CF
:100F3000A1F1C0410A60416B0968426B526841EA05
:100F40000211426B926841EA0221426B928941EAA6
:100F50000241426B128A41EA0251426B127D41EA20
:100F60000261426B926911430268521C9200A2F125
:100F7000C0421160C16AB1F5804F1BD1816B096815
:100F8000826B526841EA0211826B926841EA022147
:100F9000826B128A41EA0251826B127D41EA026140
:100FA000826B9269114302689200A2F1C042C2F8BA
:100FB000041107E06FF0704201688900A1F1C0419F
:100FC000C1F804217047F0B50A460021002300242F
:100FD00000BF3DE0012505FA01F3156805EA0304A9
:100FE0009C4234D105684F000326BE40B5430560DE
:100FF00015794E00B5400668354305601579012D19
:1010000002D01579022D16D185684F000326BE4007
:10101000B543856055794E00B54086683543856097
:10102000456801268E40B5434560456896798E40F7
:10103000B6B235434560C5684F000326BE40B54390
:10104000C560D5794E00B540C6683543C560491CBA
:101050001029BFD3F0BDF0B5002300244D07ED0EDD
:1010600002FA05F3CE1000F1200555F826504E0780
:10107000F70E0F26BE40B543CF1000F1200646F80C
:101080002750CE1000F1200555F8265045EA0304FC
:10109000CE1000F1200545F82640F0BD4183704791
:1010A0000183704700B585B00121402001F02AFA84
:1010B0000320039001208DF8100000208DF812000D
:1010C00003208DF8110001208DF8130003A9FE48BC
:1010D000FFF779FF0121022001F014FA4FF440607C
:1010E000039001208DF8100000208DF812000320DD
:1010F0008DF8110001208DF8130003A9F348FFF7C4
:1011000062FF0121082001F0FDF90C20039000206E
:101110008DF8100003208DF8110002208DF81300C7
:1011200003A9EB48FFF74FFF0121042001F0EAF982
:101130004FF40060039000208DF8100003208DF81C
:10114000110002208DF8130003A9E248FFF73BFFCE
:101150000121042001F0D6F9C020039001208DF870
:10116000100000208DF8120003208DF811000120DE
:101170008DF8130003A9D748FFF725FF01210820A8
:1011800001F0C0F94FF40050039001208DF81000D9
:1011900000208DF8120003208DF8110001208DF839
:1011A000130003A9CA48FFF70EFF0121402001F0F8
:1011B000A9F94FF4E670039001208DF8100000208B
:1011C0008DF8120003208DF8110001208DF8130016
:1011D00003A9BD48FFF7F7FE4FF48060039001209C
:1011E0008DF8100000208DF8120003208DF81100FA
:1011F00001208DF8130003A9B348FFF7E4FE4FF474
:101200008061B148FFF74CFF0121402001F07AF9DD
:101210004FF40060039000208DF8100003208DF83B
:10122000110001208DF8130003A9A748FFF7CBFE9A
:101230000121022001F066F94FF4004003900120E3
:101240008DF8100000208DF8120003208DF8110099
:1012500001208DF8130003A99C48FFF7B4FE4FF45A
:1012600000419A48FFF71AFF0121082001F04AF9CE
:101270004FF48050039001208DF8100000208DF86D
:10128000120003208DF8110001208DF8130003A92E
:101290008F48FFF798FE4FF480518D48FFF7FEFE10
:1012A0000121084601F02EF94FF4C05003900020B0
:1012B0008DF8100003208DF8110002208DF8130026
:1012C00003A98548FFF77FFE0121042001F01AF9E8
:1012D0004FF44070039000208DF8100003208DF82B
:1012E000110002208DF8130003A97A48FFF76BFE66
:1012F0000121102001F006F91C20039000208DF838
:10130000100003208DF8110002208DF8130003A9AE
:101310007248FFF758FE0121202001F0F3F80E205B
:10132000039000208DF8100003208DF8110002209A
:101330008DF8130003A96A48FFF745FE01214020FC
:1013400001F0E0F83020039000208DF81000032019
:101350008DF8110002208DF8130003A95A48FFF7F9
:1013600032FE0121880301F00DF90B21002001F06C
:101370005BF90821022001F057F90121052001F055
:1013800053F90221052001F04FF90321052001F056
:101390004BF90421062001F047F9022001900020BA
:1013A0008DF8080008208DF8090001208DF80A004A
:1013B00001A8FFF731FD07208DF8000001208DF80E
:1013C000010002208DF8020001208DF8030068461C
:1013D00001F022F80420019000208DF80800082078
:1013E0008DF8090001208DF80A0001A8FFF714FD0F
:1013F00008208DF8000001208DF8010002208DF8F2
:10140000020001208DF80300684601F005F808206D
:10141000019000208DF8080008208DF809000120B7
:101420008DF80A0001A8FFF7F7FC09208DF80000ED
:1014300001208DF8010002208DF8020001208DF8B6
:101440000300684600F0E8FF1020019000208DF8AE
:10145000080008208DF8090001208DF80A0001A875
:10146000FFF7DAFC0A208DF8000001208DF801005A
:1014700002208DF8020001208DF80300684600F07C
:10148000CBFF4FF48070019000208DF808000820F9
:101490008DF8090001208DF80A0001A8FFF7BCFCB7
:1014A00017208DF8000001208DF8010002208DF832
:1014B000020001208DF80300684600F0ADFF4FF4F4
:1014C0000060019000200DE000180240000402407E
:1014D000000C0240000802400000024000100240E0
:1014E000001402408DF8080008208DF80900012042
:1014F0008DF80A0001A8FFF78FFC28208DF8000066
:1015000001208DF8010002208DF8020001208DF8E5
:101510000300684600F080FF05B000BD00BFFEE795
:1015200010B51B480068012802D11A49087002E072
:10153000002018490870052004F000F916480078CA
:1015400014490978884221D012480078124908705D
:101550000846007801280AD110490860642004F088
:10156000EDF84FF4E1710E4803F068FE06E000204C
:101570000A49086000210A4803F060FE0648007826
:1015800003F004F80448007800F076FB10BD00007A
:10159000088241420C00002020000020BC82404212
:1015A0000004004010B516480068012802D1154912
:1015B000087002E0002013490870052004F0BEF80E
:1015C000114800780F490978884217D00D480078F3
:1015D0000D49087008460078012803D10849A43154
:1015E000086003E000200649A4310860064800783E
:1015F00003F014FA0448007800F04CFC10BD000021
:101600000C8241420D0000202100002010B52E4820
:101610000068012802D12D49087002E000202B4902
:1016200008702B4800782949097888424BD0274810
:101630000078274908700846007801281CD1254801
:1016400000882549088025480088254908802148C8
:1016500001882348008804F079F9214800884AF27B
:10166000104191FBF0F0401E1E490880084600889A
:1016700003F052FBFFF782F815480078D8B9002034
:1016800015490880154800881549088011480188C7
:101690001348008804F05AF9114800884AF21041B2
:1016A00091FBF0F0401E0F4908800846008803F0C7
:1016B00033FBFFF763F80648007800F029FB044885
:1016C000007802F0FBFF10BD2C0241420E0000200A
:1016D000220000200A0000201A000020080000203C
:1016E000180000201E0000202DE9F04F91B00526C3
:1016F0000527B046B146B246B346052010900F907C
:10170000A3A103C9CDE90D01A3A103C9CDE90B0133
:10171000A3A103C9CDE90901A3A103C9CDE907012B
:10172000A3A000680690A3A103C9CDE90401A3A169
:1017300003C9CDE90201A3A103C9CDE90001002538
:1017400018E0062101FB0561C8B2002100F0E2F9B2
:1017500000240BE00DA9495D01EB41019B4A02EB1E
:101760004101085D00F00EFE601CC4B2062CF1DBE6
:10177000681CC5B2062DE4DB002518E0062101FB3C
:101780000571C8B2012100F0C5F900240BE00BA9D6
:10179000495D01EB41018D4A02EB4101085D00F01A
:1017A000F1FD601CC4B2062CF1DB681CC5B2062D2D
:1017B000E4DB002518E0062101FB0581C8B2022107
:1017C00000F0A8F900240BE009A9495D01EB4101F3
:1017D0007E4A02EB4101085D00F0D4FD601CC4B2FA
:1017E000062CF1DB681CC5B2062DE4DB002518E0F1
:1017F000062101FB0591C8B2032100F08BF90024FA
:101800000BE007A9495D01EB4101704A02EB410180
:10181000085D00F0B7FD601CC4B2062CF1DB681C4B
:10182000C5B2062DE4DB002519E006220F9902FB64
:101830000511C8B2042100F06DF900240BE006A9DF
:10184000495D01EB4101614A02EB4101085D00F095
:1018500099FD601CC4B2062CF1DB681CC5B2042DD6
:10186000E3DB002518E0062101FB05A1C8B2052134
:1018700000F050F900240BE004A9495D01EB41019F
:10188000524A02EB4101085D00F07CFD601CC4B2CD
:10189000062CF1DB681CC5B2062DE4DB002518E040
:1018A000062101FB05B1C8B2062100F033F900247E
:1018B0000BE002A9495D01EB4101444A02EB410101
:1018C000085D00F05FFD601CC4B2062CF1DB681CF3
:1018D000C5B2052DE4DB002519E00622109902FBB4
:1018E0000511C8B2072100F015F900240BE01DF81E
:1018F000051001EB4101354A02EB4101085D00F0A2
:1019000041FD601CC4B2062CF1DB681CC5B2082D79
:10191000E3DB02212A2000F0FDF8002406E02B4939
:10192000C631085D00F02EFD601CC4B2062CF6DB4B
:1019300003212A2000F0EEF8002406E02349C631F6
:10194000085D00F01FFD601CC4B2062CF6DB02210E
:101950004B2000F0DFF8002406E01C49E431085D6C
:1019600000F010FD601CC4B2062CF6DB03214B20F6
:1019700000F0D0F8002406E01449E431085D00F0DE
:1019800001FD601CC4B2062CF6DB11B0BDE8F08F7F
:1019900021242E554D1A000030554C53451A000095
:1019A00033494E45111A000033494E45121A0000C2
:1019B0003245441A2C415345521A00002D4F4445DC
:1019C0001A0000003741524E494E471ABE590008CE
:1019D00070B50646002415E004F1B001C8B200F06D
:1019E0008BFC012000F088FC102000F085FC002515
:1019F00004E0304600F0C6FC681CC5B2802DF8DB60
:101A0000601CC4B2082CE7DB70BD000010B54FF4B9
:101A100080613E48FFF744FB02213D48FFF73EFB53
:101A2000322003F08BFE02213948FFF739FB0020FA
:101A300000F039FF0A2003F081FE802000F021FF32
:101A40000A2003F07BFE3F2000F042FF0A2003F053
:101A500075FE002000F01EFF0A2003F06FFE00203C
:101A600000F076FE0A2003F069FE042000F0EEFE8E
:101A70000A2003F063FE022000F058FE0A2003F063
:101A80005DFE012000F036FF0A2003F057FE08201B
:101A900000F0F0FE0A2003F051FE102000F0E0FEFE
:101AA0000A2003F04BFECF2000F049FE0A2003F08D
:101AB00045FEF12000F015FF0A2003F03FFE402014
:101AC00000F01FFF0A2003F039FE002000F0F2FEB4
:101AD0000A2003F033FE002000F0F3FE0A2003F09A
:101AE0002DFE012000F0DFFE0A2003F027FE00207B
:101AF000FFF76EFF0A2003F021FE0021084600F0E8
:101B000009F80A2003F01AFE10BD0000000402408C
:101B10000018024070B504460D4605F1B001C8B288
:101B200000F0EAFB102141EA141000F0E5FB04F09C
:101B30000F0141F0010000F0DFFB70BD2DE9F04125
:101B400006462A27072526E007F12A01062202FB7E
:101B50001511C8B20021FFF7DDFF0120A840304079
:101B600050B1002405E04349085D00F00BFC601C07
:101B7000C4B2062CF7DB0AE0002406E03D49891FC9
:101B8000085D00F0FFFB601CC4B2062CF6DB05B953
:101B900003E0681EC5B2002DD6DA00BF00215F2029
:101BA000FFF7B8FF642096FBF0F0C5B2632E11DD9D
:101BB00000240CE005F1100101EB41012D4A663AC9
:101BC00002EB4101085D00F0DDFB601CC4B2062C95
:101BD000F0DB08E0002404E0002000F0D3FB601CF0
:101BE000C4B2062CF8DB00216520FFF793FF6420C8
:101BF00096FBF0F100FB11600A2190FBF1F0C5B2F9
:101C0000092E11DD00240CE005F1100101EB41016A
:101C1000184A663A02EB4101085D00F0B3FB601C14
:101C2000C4B2062CF0DB08E0002404E0002000F041
:101C3000A9FB601CC4B2062CF8DB00216B20FFF767
:101C400069FF0A2096FBF0F100FB1160C5B2002489
:101C50000CE005F1100101EB4101064A663A02EB86
:101C60004101085D00F08EFB601CC4B2062CF0DB65
:101C7000BDE8F081245A000870B505462A260521E2
:101C80003046FFF747FF012D1ED1002404E000205D
:101C900000F078FB601CC4B2062CF8DB002405E0E1
:101CA0001A49085D00F06EFB601CC4B2062CF7DB1D
:101CB000002406E01549891F085D00F063FB601CE5
:101CC000C4B2062CF6DB1FE0002405E00F49085DD6
:101CD00000F058FB601CC4B2062CF7DB002406E0C1
:101CE0000A493639085D00F04DFB601CC4B2062C71
:101CF000F6DB002406E005493639085D00F042FBBA
:101D0000601CC4B2062CF6DB70BD0000985B0008B6
:101D100070B50546242606213046FFF7FBFE012D4F
:101D20000AD1002405E00A49085D00F02BFB601C85
:101D3000C4B2062CF7DB0AE0002406E00449891F40
:101D4000085D00F01FFB601CC4B2062CF6DB70BD02
:101D50002A5A00082DE9F041054632274FF47A70DF
:101D600095FBF0F0C6B201213846FFF7D3FEB5F57A
:101D70007A7F10DB00240BE006F1100101EB41013A
:101D8000434A02EB4101085D00F0FCFA601CC4B25A
:101D9000062CF1DB08E0002404E0002000F0F2FA59
:101DA000601CC4B2062CF8DB4FF47A7095FBF0F19E
:101DB00000FB1150642190FBF1F0C6B2B91DC8B20E
:101DC0000121FFF7A7FE632D10DD00240BE006F1D3
:101DD000100101EB41012E4A02EB4101085D00F0C8
:101DE000D1FA601CC4B2062CF1DB08E0002404E048
:101DF000002000F0C7FA601CC4B2062CF8DB642097
:101E000095FBF0F100FB11500A2190FBF1F0C6B2F6
:101E100007F10C01C8B20121FFF77CFE092D10DD8E
:101E200000240BE006F1100101EB4101184A02EB1E
:101E30004101085D00F0A6FA601CC4B2062CF1DB7B
:101E400008E0002404E0002000F09CFA601CC4B20A
:101E5000062CF8DB0A2095FBF0F100FB1150C6B20E
:101E600007F11201C8B20121FFF754FE00240BE074
:101E700006F1100101EB4101054A02EB4101085D49
:101E800000F080FA601CC4B2062CF1DBBDE8F081E2
:101E9000BE59000870B50546202604213046FFF7DC
:101EA00039FE012D1ED1002404E0002000F06AFA62
:101EB000601CC4B2062CF8DB002405E01A49085D5A
:101EC00000F060FA601CC4B2062CF7DB002406E0C8
:101ED0001549891F085D00F055FA601CC4B2062C34
:101EE000F6DB1FE0002405E00F49085D00F04AFA28
:101EF000601CC4B2062CF7DB002406E00A49363920
:101F0000085D00F03FFA601CC4B2062CF6DB00242A
:101F100006E005493639085D00F034FA601CC4B2A9
:101F2000062CF6DB70BD0000985B00082DE9F04739
:101F300005460E464FF032084FF05509642095FBD8
:101F4000F0F0C7B202214046FFF7E4FD632D10DD3B
:101F500000240BE007F1100101EB4101634A02EBA1
:101F60004101085D00F00EFA601CC4B2062CF1DBE2
:101F700008E0002404E0002000F004FA601CC4B271
:101F8000062CF8DB642095FBF0F100FB11500A21D0
:101F900090FBF1F0C7B208F10601C8B20221FFF7C9
:101FA000B9FD092D10DD00240BE007F1100101EB54
:101FB00041014E4A02EB4101085D00F0E3F9601C6B
:101FC000C4B2062CF1DB08E0002404E0002000F09D
:101FD000D9F9601CC4B2062CF8DB0A2095FBF0F19D
:101FE00000FB1150C7B208F10C01C8B20221FFF783
:101FF00091FD00240BE007F1100101EB41013B4A88
:1020000002EB4101085D00F0BDF9601CC4B2062C72
:10201000F1DB642096FBF0F0C7B202214846FFF7DF
:1020200079FD632E10DD00240BE007F1100101EBB8
:1020300041012E4A02EB4101085D00F0A3F9601C4A
:10204000C4B2062CF1DB08E0002404E0002000F01C
:1020500099F9601CC4B2062CF8DB642096FBF0F101
:1020600000FB11600A2190FBF1F0C7B209F10601F3
:10207000C8B20221FFF74EFD092E10DD00240BE04F
:1020800007F1100101EB4101184A02EB4101085D23
:1020900000F078F9601CC4B2062CF1DB08E00024E3
:1020A00004E0002000F06EF9601CC4B2062CF8DBDE
:1020B0000A2096FBF0F100FB1160C7B209F10C0198
:1020C000C8B20221FFF726FD00240BE007F1100142
:1020D00001EB4101054A02EB4101085D00F052F9B4
:1020E000601CC4B2062CF1DBBDE8F087BE590008C5
:1020F0002DE9F04705460E464FF032084FF05509DE
:10210000642095FBF0F0C7B203214046FFF702FDC3
:10211000632D10DD00240BE007F1100101EB4101FC
:10212000634A02EB4101085D00F02CF9601CC4B267
:10213000062CF1DB08E0002404E0002000F022F986
:10214000601CC4B2062CF8DB642095FBF0F100FBA8
:1021500011500A2190FBF1F0C7B208F10601C8B294
:102160000321FFF7D7FC092D10DD00240BE007F158
:10217000100101EB41014E4A02EB4101085D00F004
:1021800001F9601CC4B2062CF1DB08E0002404E075
:10219000002000F0F7F8601CC4B2062CF8DB0A201F
:1021A00095FBF0F100FB1150C7B208F10C01C8B269
:1021B0000321FFF7AFFC00240BE007F1100101EB56
:1021C00041013B4A02EB4101085D00F0DBF8601C75
:1021D000C4B2062CF1DB642096FBF0F0C7B20321F9
:1021E0004846FFF797FC632E10DD00240BE007F153
:1021F000100101EB41012E4A02EB4101085D00F0A4
:10220000C1F8601CC4B2062CF1DB08E0002404E035
:10221000002000F0B7F8601CC4B2062CF8DB642084
:1022200096FBF0F100FB11600A2190FBF1F0C7B2C0
:1022300009F10601C8B20321FFF76CFC092E10DD7D
:1022400000240BE007F1100101EB4101184A02EBF9
:102250004101085D00F096F8601CC4B2062CF1DB69
:1022600008E0002404E0002000F08CF8601CC4B2F8
:10227000062CF8DB0A2096FBF0F100FB1160C7B2D8
:1022800009F10C01C8B20321FFF744FC00240BE064
:1022900007F1100101EB4101054A02EB4101085D24
:1022A00000F070F8601CC4B2062CF1DBBDE8F087CA
:1022B000BE59000870B50546372607213046FFF79E
:1022C00029FC012D0AD1002405E00A49085D00F02F
:1022D00059F8601CC4B2062CF7DB0AE0002406E0C3
:1022E0000449891D085D00F04DF8601CC4B2062C3D
:1022F000F6DB70BD1E5A000870B5044608250121A2
:102300001E48FEF7CBFE012003F034FAE9011C4819
:10231000FEF7C4FE052003F02DFA28E004F080004B
:1023200040B14FF400611648FEF7BAFE012003F0F9
:1023300021FA07E04FF400611148FEF7AFFE0120DB
:1023400003F018FA4FF480610D48FEF7A9FE032050
:1023500003F010FA4FF480610948FEF79FFE012058
:1023600003F008FA6006040E012003F003FA281EA9
:10237000A5F10101CDB2D1D170BD0000001802401D
:102380000004024070B50446082501211E48FEF7EE
:1023900087FE012003F0EEF9E9011C48FEF77EFEFE
:1023A000052003F0E7F928E004F0800040B14FF485
:1023B00000611648FEF774FE012003F0DBF907E028
:1023C0004FF400611148FEF769FE012003F0D2F9D5
:1023D0004FF480610D48FEF763FE032003F0CAF955
:1023E0004FF480610948FEF759FE012003F0C2F95D
:1023F0006006040E012003F0BDF9281EA5F10101BD
:10240000CDB2D1D170BD00000018024000040240DE
:1024100000BFFEE77047000070B5002100230F22C7
:10242000C4781CB3174C246804F4E064C4F5E06479
:10243000C4F30721C1F10404E3B20A4144789C408B
:10244000E1B28478144021430C07210E0E4C05782C
:102450006155047804F01F050124AC4005786D1126
:10246000AD0005F1E025C5F8004109E0047804F06D
:102470001F050124AC40054D0678761145F826402D
:1024800070BD00000CED00E000E400E080E100E041
:1024900002490143024A1160704700000000FA053A
:1024A0000CED00E0704700001CB510480088104992
:1024B0000988884219D00A2003F040F90C480088A6
:1024C0000A490880084600880A4991FBF0F0401E3E
:1024D0000949088041F2883009880223074ACDE97A
:1024E00000105115064803F095F81CBD120000209D
:1024F000020000204090020028000020000001405F
:102500000000024029B1064A12680243044B1A60D7
:1025100004E0034A12688243014B1A6070470000CE
:102520003038024029B1064A12680243044B1A604F
:1025300004E0034A12688243014B1A6070470000AE
:102540003838024029B1064A12680243044B1A6027
:1025500004E0034A12688243014B1A60704700008E
:102560004038024029B1064A12680243044B1A60FF
:1025700004E0034A12688243014B1A60704700006E
:102580002038024029B1064A12680243044B1A60FF
:1025900004E0034A12688243014B1A60704700004E
:1025A0004438024029B1064A12680243044B1A60BB
:1025B00004E0034A12688243014B1A60704700002E
:1025C0002438024010B51448006818B90120134996
:1025D000087002E0002011490870052003F0AEF8F1
:1025E0000F4800780D490978884214D00B480078CC
:1025F0000B49087008460078012804D100200649DC
:102600007C31086003E0012003497C310860044804
:102610000078FFF74FFE10BD2C0243420F00002050
:10262000230000207047000030B500228B071C0FEC
:102630000F2303FA04F20B4B8C1053F8243093430E
:10264000084C8D1044F8253023468C1053F8243064
:102650008C07240F00FA04F42343024C8D1044F835
:10266000253030BD0838014000F0010119B10121C9
:102670002B4A116002E00021294A116000F002019A
:1026800021B10121264A121F116003E00021244AD2
:10269000121F116000F0040119B10121214A1160DB
:1026A00002E000211F4A116000F0080121B1012160
:1026B0001C4A121F116003E000211A4A121F116008
:1026C00000F0100121B10121164A103A116003E017
:1026D0000021144A103A116000F0200121B10121BB
:1026E000104A143A116003E000210E4A143A1160B6
:1026F00000F0400121B101210A4A121D116003E0DE
:102700000021084A121D116000F0800119B1012159
:10271000054A116002E00021034A11607047000081
:102720009C0241429C024342B482414210B504469D
:102730002020FFF7E1FD2046FFF7DEFD10BD10B5BC
:1027400004468120FFF7D8FD2046FFF7D5FD10BDD8
:1027500010B5044644F04000FFF7CEFD10BD000068
:102760000CB50020019000903448006840F480309F
:102770003249086000BF3148006800F40030009022
:102780000198401C0190009818B90198B0F5A04F2D
:10279000F1D12A48006800F4003010B10120009007
:1027A00001E0002000900098012846D123484030E5
:1027B000006840F08050214940310860204800689E
:1027C00040F440401E4908601C48083000681B491E
:1027D000083108600846006840F400400860084678
:1027E000006840F4A05008601648091F0860081FE0
:1027F000006840F08070091F086000BF0F48006843
:1028000000F000700028F9D040F205700E49086011
:102810000A480830006820F00300084908310860C1
:102820000846006840F00200086000BF0348083016
:10283000006800F00C000828F8D10CBD00380240F8
:102840000070004008544007003C024010B50446A8
:102850008D20FFF751FD44F01000FFF74DFD10BD36
:1028600010B50446DA20FFF747FD44F00200FFF7F9
:1028700043FD10BD10B5044644F0C000FFF73CFD19
:1028800010BD10B50446D520FFF736FD2046FFF7F2
:1028900033FD10BD10B50446D320FFF72DFD2046B3
:1028A000FFF72AFD10BD10B5044644F0AE00FFF757
:1028B00023FD10BD10B5044644F0A400FFF71CFD35
:1028C00010BD10B5044644F0A600FFF715FD10BD7D
:1028D00010B50446A820FFF70FFD2046FFF70CFDBA
:1028E00010BD10B50446D920FFF706FD2046FFF7BE
:1028F00003FD10BD10B5044644F0A000FFF7FCFC3A
:1029000010BD10B50446DB20FFF7F6FC2046FFF7AC
:10291000F3FC10BD30B5002413E004F17F01282042
:1029200001F0B4FC02F030F9002505E0064800880B
:1029300006490880681C85B2B5F5347FF6DB601C5B
:10294000C4B2082CE9DB30BD360000208000006CEA
:1029500010B51F4800881F490988884205D11E48C4
:1029600000881E490988884231D00A2002F0E6FE1C
:1029700018480088164908801848008816490880B9
:10298000144801881448008802F08CFF124800881F
:102990004AF2104191FBF0F0401E114908800846B0
:1029A000008802F005F9FDF799FE0E48007801282D
:1029B00005D14FF4F7710C4802F040FC03E0002110
:1029C000094802F03BFC0348008802F077F810BD8C
:1029D0001600002006000020140000200400002043
:1029E0001C000020200000200004004010B5184802
:1029F000008818490988884205D117480088174976
:102A00000988884223D01648007801281FD10A205F
:102A100002F094FE0F4800880D4908800F48008896
:102A20000D4908800B4801880B48008802F08EFF92
:102A3000094800884AF2104191FBF0F0401E094914
:102A400008800846008802F067F9FDF797FE10BD80
:102A50001A0000200A0000201800002008000020B2
:102A60000E0000201E0000201CB5FEF73DFE0020D9
:102A7000FDF758FDC449087008460078FFF75EF876
:102A8000C148007801F028FCBF480078BF490870B1
:102A9000BD480078FFF7E8FD0120FDF743FDBC4984
:102AA0000880084600884FF6FF7101EA0020B84907
:102AB00008800220FDF736FDB54909880844B4496D
:102AC000088008460088B349088008460088B24953
:102AD00091FBF0F0401EB149088041F2883009882E
:102AE0000223AF4ACDE900105115AE4802F092FD25
:102AF000A748008801F00CFFA5480088FFF72AF9D5
:102B00000320FDF70FFDA8490880084600884FF60E
:102B1000FF7101EA0020A44908800420FDF702FDAE
:102B2000A14909880844A04908800520FDF7FAFC5E
:102B30009E490880084600884FF6FF7101EA002090
:102B40009A4908800620FDF7EDFC98490988084459
:102B5000964908800846018893480088FFF7E6F9FF
:102B600091480088924908809048008891490880DF
:102B70008D4801888F48008802F094FE8D480088B7
:102B80004AF2104191FBF0F0401E8B490880084644
:102B9000008802F00DF8FDF7A1FD8348008801F0E0
:102BA0008DFF0720FDF7BEFC844908800846008899
:102BB0004FF6FF7101EA0020804908800820FDF7E8
:102BC000B1FC7E49098808447C4908800920FDF74A
:102BD000A9FC7B490880084600884FF6FF7101EA8E
:102BE0000020774908800A20FDF79CFC7449098879
:102BF0000844734908800846018870480088FFF738
:102C000077FA70480068012802D16F49087002E025
:102C100000206D4908706C4800786C4908700846BF
:102C2000007801280AD16A490860642002F086FD14
:102C30004FF4F771674802F001FB06E00020644999
:102C400008600021634802F0F9FA60480078FFF755
:102C500013F85E48007801F099FC5A48001D00689E
:102C6000012802D15C49087002E000205A4908702E
:102C7000594800785949087008460078012803D15E
:102C80005049A831086003E000204E49A83108608F
:102C900052480078FFF7FEF85048007801F0BEFE79
:102CA0004F480068012802D14E49087002E0002018
:102CB0004C4908704B4800784B490870084600782A
:102CC00001281DD13D480088484908803C480088BB
:102CD00047490880394801884548008802F036FE97
:102CE000434800884AF2104191FBF0F0401E4149F0
:102CF00008800846008802F00FF8FDF73FFD1BE052
:102D000000203A4908802E480088394908802B481D
:102D100001883748008802F019FE354800884AF2D9
:102D2000104191FBF0F0401E3249088008460088AF
:102D300001F0F2FFFDF722FD2B48007801F0BEFC08
:102D400029480078FEF7E4FF2B48006818B90120F5
:102D50002A49087002E000202849087027480078B6
:102D60002749087008460078012804D1002022492C
:102D70007C31086003E001201F497C310860204855
:102D80000078FFF797FA1CBD00000020110000201A
:102D900002000020120000204090020028000020C5
:102DA0000000014000000240060000200400002056
:102DB00016000020140000201C0000200A00002043
:102DC00008000020088241420C0000202000002062
:102DD000BC824042000400400D0000202100002081
:102DE0002C0241420E000020220000201A00002088
:102DF000180000201E0000202C0243420F0000207B
:102E000023000020042808D14FF0E021096941F097
:102E100004014FF0E022116107E04FF0E021096961
:102E200021F004014FF0E02211617047704700006B
:102E300010B51548006840F4700013490860134845
:102E4000006840F001001149086000200F49083176
:102E500008600E4800680E4908400C4908600D489B
:102E6000091D0860081F006820F48020091F086001
:102E7000002006490C310860FFF772FC4FF000603B
:102E800001498039086010BD88ED00E0003802403B
:102E9000FFFFF6FE1030002470B5044600260948F6
:102EA0000588408845430021084601F0EFF901F00C
:102EB0006BFE00BF02E004480480761CAE42FAD3E9
:102EC00070BD0000AC1700208000006C10B50446F7
:102ED00094B90020134988714FF4305008814FF4A1
:102EE000285048814FF42C5088814FF4F0700880AE
:102EF0004FF44870488011E001200A4988714FF46E
:102F0000305008814FF4285048814FF42C5088816C
:102F10004FF4487008804FF4F0704880072001F0AB
:102F200017F910BDAC17002000B5A1B0002020900B
:102F300001217E20FFF7E6FA01210846FFF7F2FAA9
:102F40004FF480501E9001208DF87C0000208DF8F9
:102F50007E0002208DF87D0001208DF87F001EA9E3
:102F6000FE48FEF730F84CF233701E9002208DF8C8
:102F70007C0000208DF87E0003208DF87D0001206C
:102F80008DF87F001EA9F648FEF71DF84FF68070F9
:102F90001E9002208DF87C0000208DF87E0003201A
:102FA0008DF87D0001208DF87F001EA9ED48FEF709
:102FB0000AF84FF480501E9002208DF87C0000200B
:102FC0008DF87E0003208DF87D0001208DF87F00B4
:102FD0001EA9E548FDF7F7FF4FF480501E90022030
:102FE0008DF87C0000208DF87E0003208DF87D0098
:102FF00001208DF87F001EA9DC48FDF7E4FF0C22BC
:103000000021D748FEF727F80C220121D448FEF70B
:1030100022F80C220421D248FEF71DF80C220521CB
:10302000CF48FEF718F80C220821CD48FEF713F818
:103030000C220921CA48FEF70EF80C220A21C848C2
:10304000FEF709F80C220E21C548FEF704F80C2201
:103050000F21C348FDF7FFFF0C220721C148FDF7F0
:10306000FAFF0C220821BF48FDF7F5FF0C220921C9
:10307000BC48FDF7F0FF0C220A21BA48FDF7EBFF30
:103080000C220B21B748FDF7E6FF0C221146B5488C
:10309000FDF7E1FF0C220D21B248FDF7DCFF0C2209
:1030A0000E21B048FDF7D7FF0C220F21AD48FDF7E8
:1030B000D2FF0C221146AC48FDF7CDFF0C22114681
:1030C000AA48FDF7C8FF0F200890002009903C2077
:1030D0000A9000200B900C900D900E900C20019007
:1030E000002002900E20039000200490059006908E
:1030F000079006200F900020109011901020129041
:103100000020139015901490169017904FF4805053
:103110001890002019904FF480401A9000201B90C6
:1031200008A81C9001A81D900FA8FDF7D9FE012149
:103130000620FDF7BBFE322002F000FB012100203B
:1031400001F02CFD322002F0F9FA002000F0F4FF2B
:103150008749888008468088FF280ADB08468088DF
:103160004FF6FF71884204D081488088B0F5134F34
:103170001DD1D32001F0FCFC00F0D4FF7C498880F5
:1031800000F0D0FF7A49888000F0CCFF7849888031
:10319000084680884FF6FF7101EA00207449888054
:1031A00000F0C0FF724989880843714988807148DE
:1031B000006820F00F004FF02041C1F81C010846C4
:1031C000D0F81C0120F47060C1F81C010846D0F84A
:1031D0001C0140F00200C1F81C010846D0F81C0197
:1031E00040F44070C1F81C0155214FF4704001F0CB
:1031F000D5FCAA214FF2010001F0D0FC52214FF280
:10320000020001F0CBFC08214FF2030001F0C6FCE4
:1032100001214FF2040001F0C1FC0D214FF43040B8
:1032200001F0BCFC0D214BF2010001F0B7FC0D21B7
:103230004BF2020001F0B2FC34214FF4364001F0B1
:10324000ADFC34214BF2016001F0A8FC34214BF2BB
:10325000026001F0A3FC0D214FF4314001F09EFC0F
:103260000D214BF2011001F099FC0D214BF20210DF
:1032700001F094FC34214FF4374001F08FFC3421ED
:103280004BF2017001F08AFC34214BF2027001F024
:1032900085FC00214FF4324001F080FC00214BF20C
:1032A000012001F07BFC00214BF2022001F076FCB2
:1032B00024214FF4384001F071FC24214BF6010029
:1032C00001F06CFC24214BF6020001F067FC0121A7
:1032D0004FF43F4001F062FC0F214FF4334001F006
:1032E0005DFC0F214BF2013001F058FC0F214BF235
:1032F000023001F053FC34214FF4394001F04EFC10
:1033000034214BF6011001F049FC34214BF6021038
:1033100001F044FC08214FF4354001F03FFC082146
:103320004BF2015001F03AFC08214BF2025001F03F
:1033300035FC03214FF4424001F030FC24214FF4CE
:103340003A4001F02BFC24214BF6012001F026FC31
:1033500024214BF6022001F021FC0DE00008024080
:10336000000C02400010024000140240001802400D
:10337000AC1700201C0100A000214FF43C4001F0DC
:103380000DFC78214BF6014001F008FC00214BF6C2
:10339000024001F003FC00214FF43D4001F0FEFB30
:1033A00078214BF6015001F0F9FB00214BF6025059
:1033B00001F0F4FB00214FF43E4001F0EFFB6421EB
:1033C0004BF6016001F0EAFB00214FF4514001F09F
:1033D000E5FB33214DF2011001F0E0FB00214DF23D
:1033E000021001F0DBFB34214DF2031001F0D6FB9B
:1033F00000214DF2041001F0D1FB3A214DF20510ED
:1034000001F0CCFB00214DF2061001F0C7FB4A2170
:103410004DF2071001F0C2FB00214DF2081001F03F
:10342000BDFB5C214DF2091001F0B8FB00214DF20B
:103430000A1001F0B3FB81214DF20B1001F0AEFB3D
:1034400000214DF20C1001F0A9FBA6214DF20D1048
:1034500001F0A4FB00214DF20E1001F09FFBE521CD
:103460004DF20F1001F09AFB01214DF2101001F006
:1034700095FB13214DF2111001F090FB01214DF24B
:10348000121001F08BFB54214DF2131001F086FB5A
:1034900001214DF2141001F081FB82214DF2151033
:1034A00001F07CFB01214DF2161001F077FBCA21DF
:1034B0004DF2171001F072FB02214DF2181001F0CD
:1034C0006DFB00214DF2191001F068FB02214DF255
:1034D0001A1001F063FB01214DF21B1001F05EFB9D
:1034E00002214DF21C1001F059FB34214DF21D1048
:1034F00001F054FB02214DF21E1001F04FFB672139
:103500004DF21F1001F04AFB02214DF2201001F094
:1035100045FB84214DF2211001F040FB02214DF2C8
:10352000221001F03BFBA4214DF2231001F036FBE9
:1035300002214DF2241001F031FBB7214DF225108C
:1035400001F02CFB02214DF2261001F027FBCF21C8
:103550004DF2271001F022FB02214DF2281001F05C
:103560001DFBDE214DF2291001F018FB02214DF266
:103570002A1001F013FBF2214DF22B1001F00EFB8B
:1035800002214DF22C1001F009FBFE214DF22D100D
:1035900001F004FB03214DF22E1001F0FFFA10217F
:1035A0004DF22F1001F0FAFA03214DF2301001F024
:1035B000F5FA33214DF2311001F0F0FA03214DF20A
:1035C000321001F0EBFA6D214DF2331001F0E6FA02
:1035D00000214FF4524001F0E1FA33214DF2012075
:1035E00001F0DCFA00214DF2022001F0D7FA34217B
:1035F0004DF2032001F0D2FA00214DF2042001F037
:10360000CDFA3A214DF2052001F0C8FA00214DF221
:10361000062001F0C3FA4A214DF2072001F0BEFA5C
:1036200000214DF2082001F0B9FA5C214DF2092089
:1036300001F0B4FA00214DF20A2001F0AFFA812125
:103640004DF20B2001F0AAFA00214DF20C2001F0FE
:10365000A5FAA6214DF20D2001F0A0FA00214DF2AD
:103660000E2001F09BFAE5214DF20F2001F096FAB1
:1036700001214DF2102001F091FA13214DF2112099
:1036800001F08CFA01214DF2122001F087FA542149
:103690004DF2132001F082FA01214DF2142001F0C5
:1036A0007DFA82214DF2152001F078FA01214DF2C8
:1036B000162001F073FACA214DF2172001F06EFABC
:1036C00002214DF2182001F069FA00214DF2192073
:1036D00001F064FA02214DF21A2001F05FFA012193
:1036E0004DF21B2001F05AFA02214DF21C2001F08C
:1036F00055FA34214DF21D2001F050FA02214DF20D
:103700001E2001F04BFA67214DF21F2001F046FA0E
:1037100002214DF2202001F041FA84214DF22120B6
:1037200001F03CFA02214DF2222001F037FAA421E7
:103730004DF2232001F032FA02214DF2242001F053
:103740002DFAB7214DF2252001F028FA02214DF281
:10375000262001F023FACF214DF2272001F01EFA96
:1037600002214DF2282001F019FADE214DF2292024
:1037700001F014FA02214DF22A2001F00FFAF22191
:103780004DF22B2001F00AFA02214DF22C2001F01B
:1037900005FAFE214DF22D2001F000FA03214DF231
:1037A0002E2001F0FBF910214DF22F2001F0F6F947
:1037B00003214DF2302001F0F1F933214DF2312097
:1037C00001F0ECF903214DF2322001F0E7F96D210F
:1037D0004DF2332001F0E2F900214FF4534001F0A3
:1037E000DDF933214DF2013001F0D8F900214DF21D
:1037F000023001F0D3F934214DF2033001F0CEF95B
:1038000000214DF2043001F0C9F93A214DF20530A2
:1038100001F0C4F900214DF2063001F0BFF94A2150
:103820004DF2073001F0BAF900214DF2083001F0F5
:10383000B5F95C214DF2093001F0B0F900214DF2EB
:103840000A3001F0ABF981214DF20B3001F0A6F9FD
:1038500000214DF20C3001F0A1F9A6214DF20D30FE
:1038600001F09CF900214DF20E3001F097F9E521AD
:103870004DF20F3001F092F901214DF2103001F0BC
:103880008DF913214DF2113001F088F901214DF22B
:10389000123001F083F954214DF2133001F07EF91A
:1038A00001214DF2143001F079F982214DF21530E9
:1038B00001F074F901214DF2163001F06FF9CA21BF
:1038C0004DF2173001F06AF902214DF2183001F083
:1038D00065F900214DF2193001F060F902214DF235
:1038E0001A3001F05BF901214DF21B3001F056F95D
:1038F00002214DF21C3001F051F934214DF21D30FE
:1039000001F04CF902214DF21E3001F047F9672118
:103910004DF21F3001F042F902214DF2203001F04A
:103920003DF984214DF2213001F038F902214DF2A8
:10393000223001F033F9A4214DF2233001F02EF9A9
:1039400002214DF2243001F029F9B7214DF2253042
:1039500001F024F902214DF2263001F01FF9CF21A8
:103960004DF2273001F01AF902214DF2283001F012
:1039700015F9DE214DF2293001F010F902214DF246
:103980002A3001F00BF9F2214DF22B3001F006F94B
:1039900002214DF22C3001F001F9FE214DF22D30C3
:1039A00001F0FCF803214DF22E3001F0F7F8102160
:1039B0004DF22F3001F0F2F803214DF2303001F0DA
:1039C000EDF833214DF2313001F0E8F803214DF2EA
:1039D000323001F0E3F86D214DF2333001F0DEF8C2
:1039E00000214FF4544001F0D9F833214DF2014049
:1039F00001F0D4F800214DF2024001F0CFF834215B
:103A00004DF2034001F0CAF800214DF2044001F0EC
:103A1000C5F83A214DF2054001F0C0F800214DF201
:103A2000064001F0BBF84A214DF2074001F0B6F81C
:103A300000214DF2084001F0B1F85C214DF209403F
:103A400001F0ACF800214DF20A4001F0A7F8812105
:103A50004DF20B4001F0A2F800214DF20C4001F0B4
:103A60009DF8A6214DF20D4001F098F800214DF28D
:103A70000E4001F093F8E5214DF20F4001F08EF871
:103A800001214DF2104001F089F813214DF211404F
:103A900001F084F801214DF2124001F07FF8542129
:103AA0004DF2134001F07AF801214DF2144001F07B
:103AB00075F882214DF2154001F070F801214DF2A8
:103AC000164001F06BF8CA214DF2174001F066F87C
:103AD00002214DF2184001F061F800214DF2194029
:103AE00001F05CF802214DF21A4001F057F8012173
:103AF0004DF21B4001F052F802214DF21C4001F042
:103B00004DF834214DF21D4001F048F802214DF2EC
:103B10001E4001F043F867214DF21F4001F03EF8CE
:103B200002214DF2204001F039F884214DF221406C
:103B300001F034F802214DF2224001F02FF8A421C7
:103B40004DF2234001F02AF802214DF2244001F009
:103B500025F8B7214DF2254001F020F802214DF261
:103B6000264001F01BF8CF214DF2274001F016F856
:103B700002214DF2284001F011F8DE214DF22940DA
:103B800001F00CF802214DF22A4001F007F8F22171
:103B90004DF22B4001F002F802214DF22C4000F0D2
:103BA000FDFFFE214DF22D4000F0F8FF03214DF204
:103BB0002E4000F0F3FF10214DF22F4000F0EEFFF9
:103BC00003214DF2304000F0E9FF33214DF2314046
:103BD00000F0E4FF03214DF2324000F0DFFF6D21E1
:103BE0004DF2334000F0DAFF00214FF4554000F071
:103BF000D5FF33214DF2015000F0D0FF00214DF2EE
:103C0000025000F0CBFF34214DF2035000F0C6FF0C
:103C100000214DF2045000F0C1FF3A214DF2055051
:103C200000F0BCFF00214DF2065000F0B7FF4A2122
:103C30004DF2075000F0B2FF00214DF2085000F0A5
:103C4000ADFF5C214DF2095000F0A8FF00214DF2BC
:103C50000A5000F0A3FF81214DF20B5000F09EFFAF
:103C600000214DF20C5000F099FFA6214DF20D50AD
:103C700000F094FF00214DF20E5000F08FFFE5217F
:103C80004DF20F5000F08AFF01214DF2105000F06C
:103C900085FF13214DF2115000F080FF01214DF2FC
:103CA000125000F07BFF54214DF2135000F076FFCC
:103CB00001214DF2145000F071FF82214DF2155098
:103CC00000F06CFF01214DF2165000F067FFCA2191
:103CD0004DF2175000F062FF02214DF2185000F033
:103CE0005DFF00214DF2195000F058FF02214DF206
:103CF0001A5000F053FF01214DF21B5000F04EFF0F
:103D000002214DF21C5000F049FF34214DF21D50AC
:103D100000F044FF02214DF21E5000F03FFF6721EA
:103D20004DF21F5000F03AFF02214DF2205000F0FA
:103D300035FF84214DF2215000F030FF02214DF279
:103D4000225000F02BFFA4214DF2235000F026FF5B
:103D500002214DF2245000F021FFB7214DF22550F1
:103D600000F01CFF02214DF2265000F017FFCF217A
:103D70004DF2275000F012FF02214DF2285000F0C2
:103D80000DFFDE214DF2295000F008FF02214DF217
:103D90002A5000F003FFF2214DF22B5000F0FEFEFE
:103DA00002214DF22C5000F0F9FEFE214DF22D5073
:103DB00000F0F4FE03214DF22E5000F0EFFE102132
:103DC0004DF22F5000F0EAFE03214DF2305000F08A
:103DD000E5FE33214DF2315000F0E0FE03214DF2BB
:103DE000325000F0DBFE6D214DF2335000F0D6FE74
:103DF00000214FF4564000F0D1FE33214DF2016016
:103E000000F0CCFE00214DF2026000F0C7FE34212C
:103E10004DF2036000F0C2FE00214DF2046000F09C
:103E2000BDFE3A214DF2056000F0B8FE00214DF2D2
:103E3000066000F0B3FE4A214DF2076000F0AEFECE
:103E400000214DF2086000F0A9FE5C214DF20960EE
:103E500000F0A4FE00214DF20A6000F09FFE8121D7
:103E60004DF20B6000F09AFE00214DF20C6000F064
:103E700095FEA6214DF20D6000F090FE00214DF25E
:103E80000E6000F08BFEE5214DF20F6000F086FE23
:103E900001214DF2106000F081FE13214DF21160FE
:103EA00000F07CFE01214DF2126000F077FE5421FB
:103EB0004DF2136000F072FE01214DF2146000F02B
:103EC0006DFE82214DF2156000F068FE01214DF279
:103ED000166000F063FECA214DF2176000F05EFE2E
:103EE00002214DF2186000F059FE00214DF21960D8
:103EF00000F054FE02214DF21A6000F04FFE012145
:103F00004DF21B6000F04AFE02214DF21C6000F0F1
:103F100045FE34214DF21D6000F040FE02214DF2BD
:103F20001E6000F03BFE67214DF21F6000F036FE80
:103F300002214DF2206000F031FE84214DF221601B
:103F400000F02CFE02214DF2226000F027FEA42199
:103F50004DF2236000F022FE02214DF2246000F0B9
:103F60001DFEB7214DF2256000F018FE02214DF232
:103F7000266000F013FECF214DF2276000F00EFE08
:103F800002214DF2286000F009FEDE214DF2296089
:103F900000F004FE02214DF22A6000F0FFFDF22144
:103FA0004DF22B6000F0FAFD02214DF22C6000F082
:103FB000F5FDFE214DF22D6000F0F0FD03214DF2E4
:103FC0002E6000F0EBFD10214DF22F6000F0E6FDB9
:103FD00003214DF2306000F0E1FD33214DF23160FC
:103FE00000F0DCFD03214DF2326000F0D7FD6D21C1
:103FF0004DF2336000F0D2FD55214FF4704000F0D7
:10400000CDFDAA214FF2010000F0C8FD52214FF270
:10401000020000F0C3FD08214FF2030000F0BEFDD6
:1040200000214FF2040000F0B9FDCC214FF43140E3
:1040300000F0B4FD00214BF2011000F0AFFD0521AE
:104040004FF4364000F0AAFD70214FF4374000F0E5
:10405000A5FD70214BF2017000F0A0FD01214FF48D
:10406000384000F09BFD03214BF6010000F096FD67
:1040700003214BF6020000F091FD03214BF60300F3
:1040800000F08CFD02214FF43C4000F087FD002140
:104090004BF6014000F082FD00214BF6024000F09B
:1040A0007DFDD0214FF4494000F078FD02214CF60F
:1040B000011000F073FD50214CF6021000F06EFD6F
:1040C00050214CF6031000F069FD50214CF604100D
:1040D00000F064FD00214FF4545000F05FFD5521C5
:1040E0004FF4685000F05AFD4FF4885000F040FD46
:1040F000782001F03FFB4FF4245000F039FD0120FF
:10410000FEF7E4FE012005490860322001F016FBAD
:1041100003480088FEF7C0FE21B000BDB002414256
:104120003800002008B5034800880090BDF8000062
:1041300008BD00008000006C10B50446204600F069
:1041400017FD052001F016FBFFF7ECFF10BD000086
:1041500070B50546002400264B488079012818D107
:10416000082D15D2DFE805F00406080A0C0E10121F
:1041700006250DE007250BE0042509E0052507E0ED
:10418000012505E0002503E0032501E0022500BF2D
:1041900000BF082D1CD2DFE805F00406090C0F1241
:1041A000151800BF14E044F0800411E044F040040E
:1041B0000EE044F0C0040BE044F0200408E044F0BA
:1041C000600405E044F0A00402E044F0E00400BF15
:1041D00000BF4FF4585644F020042146304600F00A
:1041E000DDFC2949488900F0C3FC002000F0B4FC44
:1041F00025494989491C88B200F0BAFC002000F02A
:10420000ABFC21494989891C88B200F0B1FC1E49E8
:104210000988491EC1F30F2000F09EFC1A49498904
:10422000C91C88B200F0A4FC17490978491EC8B21D
:1042300000F092FC1449888900F09AFC002000F0FC
:104240008BFC11498989491C88B200F091FC00203F
:1042500000F082FC0C498989891C88B200F088FC36
:1042600009494988491EC1F30F2000F075FC064931
:104270008989C91C88B200F07BFC03498978491EF2
:10428000C8B200F069FC70BDAC17002010B5024642
:104290000C461049488900F06BFC101200F05CFCE1
:1042A0000C494989491C88B200F062FCD0B200F088
:1042B00053FC0849888900F05BFC201200F04CFC9C
:1042C00004498989491C88B200F052FCE0B200F030
:1042D00043FC10BDAC1700202DE9FC4106464FF40D
:1042E000FA774FF09F08C8207043332190FBF1F01C
:1042F00084B20C208DF80000642C17DA0A2094FB9D
:10430000F0F0C5B28DF801500A208DF8020094FB40
:10431000F0F100FB1140C5B28DF803500B208DF871
:1043200004000C208DF805008DF80600B4F57A7FA6
:1043300022DA632C20DD642094FBF0F0C5B28DF806
:104340000150642094FBF0F100FB11400A2190FB26
:10435000F1F0C5B28DF802500A208DF8030094FBED
:10436000F0F100FB1140C5B28DF804500B208DF820
:1043700005000C208DF80600B4F57A7F14D14FF4B7
:104380007A7094FBF0F0C5B28DF8015000208DF8E2
:1043900002008DF803000A208DF8040000208DF83B
:1043A00005000B208DF8060007236A464146384673
:1043B00000F002F8BDE8FC812DE9F04FC7B083465C
:1043C000894690469A46002500200090002693E0FA
:1043D000002768E018F80700092820DC00241CE00A
:1043E0004FF48C70704318F80710C1EBC10100EB5B
:1043F0008100022101FB0400009042480099415CC9
:1044000002460098401C105C01EB002001A921F835
:104410001500681C85B2601C84B20E2CE0DB18F815
:1044200007000A281CD1002418E042F2D000122113
:1044300001FB0600022101FB0400009031480099B5
:10444000415C02460098401C105C01EB002001A971
:1044500021F81500681C85B2601C84B2092CE4DBCD
:1044600018F807000B281CD1002418E042F2EC20B9
:10447000322101FB0600022101FB040000902148CB
:104480000099415C02460098401C105C01EB002042
:1044900001A921F81500681C85B2601C84B2192C92
:1044A000E4DB781CC7B2574594DB2C4606E016487F
:1044B000008801A921F81400601C84B28C2CF6DB62
:1044C00009EB060081B25846FFF7E0FE09EB060053
:1044D00081B25846FFF7DAFE00F056FB002406E0F2
:1044E00001A830F8140009490880601C84B28C2CA3
:1044F000F6DB0025701CC6B21E2EFFF669AF47B072
:10450000BDE8F08FE24F0208380000208000006C08
:104510002DE9F041ADB080460E46002700252CE085
:10452000002410E0B4206843022101FB0407154871
:10453000C15D0246781C105C01EB002080B22DF8B2
:104540001400601C84B25A2CECDB701981B2404616
:10455000FFF79CFE701981B24046FFF797FE00F00E
:1045600013FB002405E03DF8140007490880601C97
:1045700084B25A2CF7DB681CC5B21E2DD0DB2DB0DF
:10458000BDE8F081CEBE01088000006C70B5044625
:104590004FF4FA75F826012C05D14FF4A171284685
:1045A00000F0F0F805E04FF4A1714FF4FA7000F05C
:1045B0009BF870BD2DE9F041ADF2544D4FF07B08F2
:1045C00019270026002531E0002411E040F2544074
:1045D0006843022101FB04061748815D0246701CF6
:1045E000105C01EB002080B22DF81400601C84B236
:1045F00040F22A208442E9DB781981B24046FFF775
:1046000045FE781981B24046FFF740FE00F0BCFA43
:10461000002405E03DF8140008490880601C84B2BD
:1046200040F22A208442F5DB681CC5B2522DCBDB58
:104630000DF2544DBDE8F081E65B00088000006C8F
:104640002DE9F041ADB080460E46002700252CE054
:10465000002410E0B4206843022101FB0407154840
:10466000C15D0246781C105C01EB002080B22DF881
:104670001400601C84B25A2CECDB701981B24046E5
:10468000FFF704FE701981B24046FFF7FFFD00F00E
:104690007BFA002405E03DF8140007490880601CFF
:1046A00084B25A2CF7DB681CC5B21E2DD0DB2DB0AE
:1046B000BDE8F081520D02088000006C7CB5044614
:1046C0004FF4FA7540F27916012C03D102208DF8CF
:1046D000000002E001208DF8000001236A46314607
:1046E0002846FFF769FE7CBDF0B5AEB007460E4622
:1046F0000020009000253BE0002413E06C2068437C
:10470000022101FB040000901B480099415C024615
:104710000098401C105C01EB002001A921F8140056
:10472000601C84B2362CE9DB362406E0134800888E
:1047300001A921F81400601C84B25A2CF6DB701910
:1047400081B23846FFF7A2FD701981B23846FFF7F3
:104750009DFD00F019FA002406E001A830F81400CD
:1047600007490880601C84B25A2CF6DB681CC5B26D
:104770001E2DC1DB2EB0F0BD3A43020838000020E8
:104780008000006C2DE9F041ADB080460E46002758
:10479000002536E0002410E05A206843022101FB86
:1047A00004071A48C15D0246781C105C01EB00202A
:1047B00080B22DF81400601C84B22D2CECDB2D246B
:1047C00005E0134800882DF81400601C84B25A2CB0
:1047D000F7DB701981B24046FFF758FD701981B2BE
:1047E0004046FFF753FD00F0CFF9002405E03DF807
:1047F000140008490880601C84B25A2CF7DB681C3E
:10480000C5B21E2DC6DB2DB0BDE8F081AE38020862
:10481000380000208000006C2DE9F041B0B08046E7
:104820000E46002700252CE0002410E0BE2068433F
:10483000022101FB04071548C15D0246781C105C8B
:1048400001EB002080B22DF81400601C84B25F2CB4
:10485000ECDB701981B24046FFF718FD701981B288
:104860004046FFF713FD00F08FF9002405E03DF806
:10487000140007490880601C84B25F2CF7DB681CB9
:10488000C5B21E2DD0DB30B0BDE8F081E6D3010803
:104890008000006C2DE9F041ADB080460E46002747
:1048A00000252CE0002410E0B4206843022101FB25
:1048B00004071548C15D0246781C105C01EB00201E
:1048C00080B22DF81400601C84B25A2CECDB7019F5
:1048D00081B24046FFF7DAFC701981B24046FFF71B
:1048E000D5FC00F051F9002405E03DF8140007491B
:1048F0000880601C84B25A2CF7DB681CC5B21E2DE0
:10490000D0DB2DB0BDE8F0812AEA01088000006C00
:104910002DE9F84104464FF4FA76D627C8206043C3
:10492000332190FBF1F01FFA80F80C208DF8000085
:10493000642C11DA0A2094FBF0F0C5B28DF8015016
:104940000A2094FBF0F100FB1140C5B28DF8025033
:104950000C208DF8030018E0642094FBF0F0C5B241
:104960008DF80150642094FBF0F100FB11400A2106
:1049700090FBF1F0C5B28DF802500A2094FBF0F1E3
:1049800000FB1140C5B28DF8035004236A46394636
:104990003046FFF711FDBDE8F88100002DE9F04138
:1049A0009EB080460E46002700252DE0002411E031
:1049B000C5EB0510C000022101FB04071548C15DCD
:1049C0000246781C105C01EB002080B22DF8140028
:1049D000601C84B23C2CEBDB701981B24046FFF7BF
:1049E00055FC701981B24046FFF750FC00F0CCF83E
:1049F000002405E03DF8140007490880601C84B2DB
:104A00003C2CF7DB681CC5B21E2DCFDB1EB0BDE809
:104A1000F081000042FF01088000006C10B50446E0
:104A2000012C06D140F20B114FF4FA70FFF7AAFEE9
:104A300005E040F20B114FF4FA70FFF755FE10BD80
:104A40002DE9F041B0B080460E46002700252CE04D
:104A5000002410E0BE206843022101FB0407154832
:104A6000C15D0246781C105C01EB002080B22DF87D
:104A70001400601C84B25F2CECDB701981B24046DC
:104A8000FFF704FC701981B24046FFF7FFFB00F00E
:104A90007BF8002405E03DF8140007490880601CFD
:104AA00084B25F2CF7DB681CC5B21E2DD0DB30B0A2
:104AB000BDE8F0816A2202088000006C2DE9FC410B
:104AC00004464FF4FA764FF4D877C8206043332178
:104AD00090FBF1F01FFA80F8642C11DA84B10A20FF
:104AE00094FBF0F0C5B28DF800500A2094FBF0F171
:104AF00000FB1140C5B28DF801500C208DF802006A
:104B0000642C18DB642094FBF0F0C5B28DF80050E3
:104B1000642094FBF0F100FB11400A2190FBF1F0BE
:104B2000C5B28DF801500A2094FBF0F100FB114052
:104B3000C5B28DF802503CB900208DF800000C2061
:104B40008DF801008DF8020003236A46394630468D
:104B5000FFF732FCBDE8FC8101B5BDF80000009014
:104B6000BDF800000149088008BD00008000006C0D
:104B700001B5BDF800000090BDF8000001490880B3
:104B800008BD00007E00006C0248008902490880D0
:104B900070470000AC1700207E00006C034A1080B4
:104BA0004FF0D842A2F88010704700007E00006CE1
:104BB00010B58AB004464FF0804000F0F1F80121B2
:104BC0000846FDF7BFFC00220121880700F00DFB1D
:104BD00021464FF0804000F02FFB2021480600F0D6
:104BE00019FB0121880700F0C0F82D4800F0D8F823
:104BF00001210220FDF7A6FC01210220FDF782FC25
:104C0000022201212748FCF726FA022008908DF89D
:104C1000240003208DF8250000208DF826000220B6
:104C20008DF8270008A91F48FCF7CDF940F2F310D2
:104C300006900020ADF81400ADF81600ADF81C0089
:104C400005A9174800F0FCFA0521154800F0EBFA19
:104C50001021134800F0CCFA8021114800F0D1FA5D
:104C60007020ADF800000120ADF802000220ADF880
:104C70000C0069460A4800F06FFA0821084800F065
:104C8000A7FA0121064800F061F80021044800F06D
:104C9000D5FA0121024800F068F80AB010BD000002
:104CA000000400400004024010B50121164800F045
:104CB0003FF9012822D115480078401C134908709B
:104CC0001348007801280FD108460078022807DB36
:104CD00008460078092803DC01200E49086006E038
:104CE00000200C49086002E000200A4908600748DB
:104CF00000780B2802D101200449087001210248E4
:104D000000F030F810BD0000000400403400002026
:104D1000100000208482404210B50446012120206A
:104D2000FDF710FC00220121074800F05EFA214641
:104D3000054800F081FA2021034800F06BFA0121B8
:104D4000014800F012F810BD0014004021B10288A3
:104D500042F08002028004E002884FF67F731A401E
:104D600002807047CA430282704721B1028842F034
:104D70000102028004E002884FF6FE731A400280AE
:104D8000704731B1B0F8442042F40042A0F844200A
:104D900005E0B0F84420C2F30E02A0F844207047AA
:104DA00010B504465548844208D101210846FDF754
:104DB000F9FB00210120FDF7F5FB9DE0B4F1804FE8
:104DC00008D101210846FDF7CDFB00210120FDF7A8
:104DD000C9FB91E04A48844208D101210220FDF735
:104DE000C1FB00210220FDF7BDFB85E04548844260
:104DF00008D101210420FDF7B5FB00210420FDF7B7
:104E0000B1FB79E04048844208D101210820FDF738
:104E1000A9FB00210820FDF7A5FB6DE03B4884427B
:104E200008D101211020FDF79DFB00211020FDF786
:104E300099FB61E03648844208D101212020FDF72A
:104E400091FB00212020FDF78DFB55E03148844285
:104E500008D101210220FDF7A5FB00210220FDF76A
:104E6000A1FB49E02C48844209D101210804FDF747
:104E700099FB00214FF48030FDF794FB3CE027487C
:104E8000844209D101214804FDF78CFB00214FF435
:104E90000030FDF787FB2FE02148844209D1012132
:104EA0008804FDF77FFB00214FF48020FDF77AFB9B
:104EB00022E01C48844208D101214020FDF752FB2A
:104EC00000214020FDF74EFB16E01748844208D130
:104ED00001218020FDF746FB00218020FDF742FBE9
:104EE0000AE01248844207D101218015FDF73AFB00
:104EF0000021A015FDF736FB10BD000000000140A9
:104F00000004004000080040000C00400010004079
:104F100000140040000401400040014000440140F2
:104F20000048014000180040001C004000200040E4
:104F300030B50246002000230024158A05EA01034B
:104F4000958905EA010413B10CB1012000E00020AD
:104F500030BD000070B5002400220023058C4FF600
:104F6000FE7635400584028C8388048B4FF68F755E
:104F70002C40B51E2C400D882C43751E2A408D896F
:104F80002A434D882A43104DA84202D00F4DA84213
:104F900013D14FF6F7752A40CD892A434FF6FB759A
:104FA0002A408D882A434FF6FF652B404FF6FF5568
:104FB0002B400D8A2B434D8A2B43838004838D68BD
:104FC0004563028470BD0000000001400004014000
:104FD0000A460021018B4FF6F773194011430183F4
:104FE0007047000070B5002400220023058C4FF6A6
:104FF000EF7635400584028C8388048B48F6FF7574
:105000002C404FF6FF452C400D884FF6FF7606EA00
:1050100005252C434FF6DF752A408D8906EA0515D4
:105020002A434D8806EA05152A43154DA84202D0A9
:10503000144DA8421DD14FF67F752A40CD894FF6F9
:10504000FF7606EA05152A434FF6BF752A408D887C
:1050500006EA05152A434FF6FF352B404FF2FF7540
:105060002B400D8A06EA85052B434D8A06EA850505
:105070002B43838004838D688563028470BD0000A8
:1050800000000140000401400A460021018B4FF25C
:10509000FF7319404FF6FF7303EA0223194301839C
:1050A0007047000070B5002400220023058C4FF6E5
:1050B000FF6635400584028C8388848B4FF68F759C
:1050C0002C404FF6FC752C400D882C434FF6FF55B5
:1050D0002A408D894FF6FF7606EA05252A434D883A
:1050E00006EA05252A43154DA84202D0144DA842D0
:1050F0001DD14FF2FF752A40CD894FF6FF7606EAA3
:1051000005252A434FF6FF352A408D8806EA0525F6
:105110002A434EF6FF752B404DF6FF752B400D8A46
:1051200006EA05152B434D8A06EA05152B438380B5
:1051300084838D68C563028470BD00000000014057
:10514000000401400A460021818B4FF6F773194095
:10515000114381837047000070B5002200230024B2
:10516000058C4EF6FF7635400584038C8488828B4F
:1051700048F6FF752A404FF6FF452A400D884FF646
:10518000FF7606EA05252A434DF6FF752B408D89EB
:1051900006EA05352B434D8806EA05352B430A4DB3
:1051A000A84202D0094DA84208D14BF6FF752C4009
:1051B0000D8A4FF6FF7606EA85152C43848082839C
:1051C0008D680564038470BD000001400004014047
:1051D0000A460021818B4FF2FF7319404FF6FF738F
:1051E00003EA022319438183704701858282704755
:1051F0000A46002101894FF68F731940114301813E
:10520000704702894FF67F731A40028102890A4370
:105210000281704782884FF68F731A40828082889D
:105220000A438280704702894FF6F8731A40028160
:1052300002890A4302817047C16270470164704766
:1052400000220288184B98420ED0184B98420BD07F
:10525000B0F1804F08D0164B984205D0154B9842BC
:1052600002D0154B984204D14FF68F731A404B88E9
:105270001A43124B984207D0114B984204D04FF674
:10528000FF431A400B891A4302804B68C3620B88A4
:105290000385054B984202D0044B984201D18B7A8A
:1052A000038601238382704700000140000401400F
:1052B0000004004000080040000C004000100040C6
:1052C0000014004000BFFEE72DE9FC4706460D46EE
:1052D00014469946304600F0F5F807460121FDF7DF
:1052E00011F91F4884420BD01E48844208D01E4842
:1052F000844205D01D48844202D01D48844207D113
:10530000204600F021F907460121FDF73BF906E0B0
:10531000204600F019F907460121FDF713F9009521
:1053200002208DF8040003208DF8050000208DF880
:10533000060001208DF8070069463046FBF743FE62
:10534000204600F017F80746284600F071F880461E
:105350003A4641463046FBF77EFEBDE8FC8700003A
:1053600000000140000401400040014000440140B1
:105370000048014001460020224A914201D101200B
:105380003FE0214A914201D103203AE01F4A914275
:1053900001D1032035E01E4A914201D1032030E0C3
:1053A0001C4A914201D103202BE0B1F1804F01D181
:1053B000012026E0184A914201D1022021E0174A3B
:1053C000914201D102201CE0154A914201D10220F4
:1053D00017E00D4A914201D1032012E00B4A91429D
:1053E00001D103200DE00F4A914201D1092008E0CC
:1053F0000D4A914201D1092003E00C4A914200D1AB
:1054000009207047000001400004014000400140B5
:1054100000440140004801400004004000080040F2
:10542000000C004000180040001C0040002000401C
:1054300001460020012900D142E0022901D10120CA
:105440003EE0042901D102203AE0082901D10320DD
:1054500036E0102901D1042032E0202901D10520B5
:105460002EE0402901D106202AE0802901D1072021
:1054700026E0B1F5807F01D1082021E0B1F5007F61
:1054800001D109201CE0B1F5806F01D10A2017E09D
:10549000B1F5006F01D10B2012E0B1F5805F01D1B1
:1054A0000C200DE0B1F5005F01D10D2008E0B1F551
:1054B000804F01D10E2003E0B1F5004F00D10F2045
:1054C0007047000001460020164A914201D1012098
:1054D00026E0154A914201D1022021E0134A91426F
:1054E00001D104201CE0124A914201D1082017E0AA
:1054F000104A914201D1102012E00F4A914201D18D
:1055000020200DE00D4A914201D1402008E00C4AD4
:10551000914201D1802003E00A4A914200D18815CE
:1055200070470000000002400004024000080240F2
:10553000000C02400010024000140240001802401B
:10554000001C02400020024001460020244A9142F3
:1055500001D1012042E0234A914201D102203DE0E5
:10556000214A914202D14FF4803037E01F4A9142E4
:1055700002D14FF4003031E01D4A914202D14FF484
:1055800080202BE0B1F1804F01D1012026E0194AA3
:10559000914201D1022021E0174A914201D1042019
:1055A0001CE0164A914201D1082017E0144A9142AA
:1055B00001D1102012E0134A914201D120200DE0C8
:1055C000114A914201D1402008E0104A914201D194
:1055D000802003E00E4A914200D1881570470000F8
:1055E000000001400004014000400140004401402F
:1055F000004801400004004000080040000C00404A
:10560000001000400014004000180040001C004042
:10561000002000402DE9F04389B007468846154632
:105620001C46DDE9106923462A4641463846FFF705
:105630004BFE07960020ADF81800ADF82000ADF83D
:105640001A008DF8220006A92846FFF7F9FD602010
:10565000ADF804000120ADF80600701C400803906E
:105660000020ADF81000ADF80800ADF81200ADF85C
:105670001400ADF81600012C08D101A92846FFF747
:1056800069FC08212846FFF7A3FC1FE0022C08D183
:1056900001A92846FFF7A6FC08212846FFF7F4FCDD
:1056A00014E0032C08D101A92846FFF7FBFC0821D0
:1056B0002846FFF747FD09E0042C07D101A9284639
:1056C000FFF74AFD08212846FFF782FD0121284601
:1056D000FFF73CFB01212846FFF747FB06488542C0
:1056E00002D00648854203D101212846FFF749FB35
:1056F00009B0BDE8F0830000000001400004014053
:1057000010B504466FF00400FDF77CFBE11704EBD5
:105710005171C1F3C701074A11701046007800EBC0
:105720004001C1EBC0104FF6FF7101EAC000024911
:10573000088010BD300000203200002070B5044603
:105740004FF4077094FBF0F0C6B24FF4077094FB6F
:10575000F0F100FB114085B205E04FF4077000F056
:105760002FF8701EC6B2002EF7D115B1284600F0F2
:1057700027F870BD0146114A12784A434FF0E023E2
:105780005A6100229A611A46126942F001021A61B6
:1057900000BF4FF0E022106900F001021AB100F4DE
:1057A0008032002AF5D04FF0E022126922F0010287
:1057B0004FF0E0231A6100229A6170473000002008
:1057C0000146114A12884A434FF0E0235A610022F1
:1057D0009A611A46126942F001021A6100BF4FF045
:1057E000E022106900F001021AB100F48032002AB0
:1057F000F5D04FF0E022126922F001024FF0E023D1
:105800001A6100229A61704732000020A820FFF739
:1058100077FF4FF4A060FCF73BFEFAF77FFEFBF743
:1058200041FCFCF7F3F8FDF77FFB4FF6FF70FDF747
:1058300033FBFEF7BFFEA0219820FEF769FE9F21F3
:10584000FF20FEF7E9FFD7219620FFF723F840F26B
:1058500045119820FEF75CFE4FF4BE719820FEF7CC
:10586000EFFE4FF487719620FFF798F840F2B311DE
:105870009820FFF7E5F8FDF74DF8FDF7F5F800BFC4
:105880000FE0FAF72FFDFCF70FFEFDF761F8FDF7CB
:10589000ADF8FBF745FEFBF785FEFBF7B7FEFCF71F
:1058A00091FEEEE770B504460A46B2F5FA7F01DDD7
:1058B0004FF4FA72C2EB02334FF4FA7593FBF5F131
:1058C00000200AE000FB01F340F2F315B3FBF5F30F
:1058D0001C4D25F81030431C98B2B0F5FA7FF1DB6F
:1058E0004FF4FA700CE0A0F5FA734B4340F2F31555
:1058F000B3FBF5F3CB1A134D25F81030431C98B2C7
:10590000B0F57A7FEFDB002008E00E4D831C35F800
:1059100013300D4D25F81030431C98B240F2E63399
:105920009842F2DB002009E0064B33F81050064E97
:1059300000F2E63326F81350431C98B20228F3DB3A
:1059400070BD00000C0800203C00002030B504466B
:105950000A46B2F5FA7F01DD4FF4FA72C2EB023368
:105960004FF4FA7593FBF5F100200AE000FB01F318
:1059700040F2F315B3FBF5F30D4D25F81030431C41
:1059800098B2B0F5FA7FF1DB4FF4FA700CE0A0F5B5
:10599000FA734B4340F2F315B3FBF5F3CB1A044D06
:1059A00025F81030431C98B2B0F57A7FEFDB30BD9C
:1059B000DC0F00204FF04070E1EE100A704700004D
:1059C000000000000000002F00000000070007009A
:1059D00000147F147F1400242A7F2A1200626408B6
:1059E0001323003649552250000005030000000033
:1059F0001C224100000041221C000014083E081433
:105A00000008083E0808000000A060000008080820
:105A10000808000060600000002010080402003E3A
:105A20005149453E0000427F4000004261514946D5
:105A3000002141454B31001814127F1000274545C5
:105A40004539003C4A4949300001710905030036D7
:105A50004949493600064949291E000036360000EA
:105A600000005636000000081422410000141414EF
:105A700014140000412214080002015109060032EA
:105A80004959513E007C1211127C007F4949493628
:105A9000003E41414122007F4141221C007F494993
:105AA0004941007F09090901003E4149497A007FC7
:105AB0000808087F0000417F4100002040413F016D
:105AC000007F08142241007F40404040007F020CCC
:105AD000027F007F0408107F003E4141413E007F6D
